{
  "contractName": "House",
  "abi": [
    {
      "inputs": [
        {
          "internalType": "string",
          "name": "_name",
          "type": "string"
        },
        {
          "internalType": "string",
          "name": "_symbol",
          "type": "string"
        },
        {
          "internalType": "uint256",
          "name": "_cost",
          "type": "uint256"
        }
      ],
      "stateMutability": "nonpayable",
      "type": "constructor"
    },
    {
      "anonymous": false,
      "inputs": [
        {
          "indexed": true,
          "internalType": "address",
          "name": "owner",
          "type": "address"
        },
        {
          "indexed": true,
          "internalType": "address",
          "name": "approved",
          "type": "address"
        },
        {
          "indexed": true,
          "internalType": "uint256",
          "name": "tokenId",
          "type": "uint256"
        }
      ],
      "name": "Approval",
      "type": "event"
    },
    {
      "anonymous": false,
      "inputs": [
        {
          "indexed": true,
          "internalType": "address",
          "name": "owner",
          "type": "address"
        },
        {
          "indexed": true,
          "internalType": "address",
          "name": "operator",
          "type": "address"
        },
        {
          "indexed": false,
          "internalType": "bool",
          "name": "approved",
          "type": "bool"
        }
      ],
      "name": "ApprovalForAll",
      "type": "event"
    },
    {
      "anonymous": false,
      "inputs": [
        {
          "indexed": true,
          "internalType": "address",
          "name": "from",
          "type": "address"
        },
        {
          "indexed": true,
          "internalType": "address",
          "name": "to",
          "type": "address"
        },
        {
          "indexed": true,
          "internalType": "uint256",
          "name": "tokenId",
          "type": "uint256"
        }
      ],
      "name": "Transfer",
      "type": "event"
    },
    {
      "inputs": [
        {
          "internalType": "address",
          "name": "to",
          "type": "address"
        },
        {
          "internalType": "uint256",
          "name": "tokenId",
          "type": "uint256"
        }
      ],
      "name": "approve",
      "outputs": [],
      "stateMutability": "nonpayable",
      "type": "function"
    },
    {
      "inputs": [
        {
          "internalType": "address",
          "name": "owner",
          "type": "address"
        }
      ],
      "name": "balanceOf",
      "outputs": [
        {
          "internalType": "uint256",
          "name": "",
          "type": "uint256"
        }
      ],
      "stateMutability": "view",
      "type": "function"
    },
    {
      "inputs": [
        {
          "internalType": "uint256",
          "name": "",
          "type": "uint256"
        }
      ],
      "name": "buildings",
      "outputs": [
        {
          "internalType": "string",
          "name": "name",
          "type": "string"
        },
        {
          "internalType": "address",
          "name": "owner",
          "type": "address"
        },
        {
          "internalType": "int256",
          "name": "posX",
          "type": "int256"
        },
        {
          "internalType": "int256",
          "name": "posY",
          "type": "int256"
        },
        {
          "internalType": "int256",
          "name": "posZ",
          "type": "int256"
        },
        {
          "internalType": "uint256",
          "name": "sizeX",
          "type": "uint256"
        },
        {
          "internalType": "uint256",
          "name": "sizeY",
          "type": "uint256"
        },
        {
          "internalType": "uint256",
          "name": "sizeZ",
          "type": "uint256"
        }
      ],
      "stateMutability": "view",
      "type": "function"
    },
    {
      "inputs": [],
      "name": "cost",
      "outputs": [
        {
          "internalType": "uint256",
          "name": "",
          "type": "uint256"
        }
      ],
      "stateMutability": "view",
      "type": "function"
    },
    {
      "inputs": [
        {
          "internalType": "uint256",
          "name": "tokenId",
          "type": "uint256"
        }
      ],
      "name": "getApproved",
      "outputs": [
        {
          "internalType": "address",
          "name": "",
          "type": "address"
        }
      ],
      "stateMutability": "view",
      "type": "function"
    },
    {
      "inputs": [
        {
          "internalType": "address",
          "name": "owner",
          "type": "address"
        },
        {
          "internalType": "address",
          "name": "operator",
          "type": "address"
        }
      ],
      "name": "isApprovedForAll",
      "outputs": [
        {
          "internalType": "bool",
          "name": "",
          "type": "bool"
        }
      ],
      "stateMutability": "view",
      "type": "function"
    },
    {
      "inputs": [],
      "name": "maxSupply",
      "outputs": [
        {
          "internalType": "uint256",
          "name": "",
          "type": "uint256"
        }
      ],
      "stateMutability": "view",
      "type": "function"
    },
    {
      "inputs": [],
      "name": "name",
      "outputs": [
        {
          "internalType": "string",
          "name": "",
          "type": "string"
        }
      ],
      "stateMutability": "view",
      "type": "function"
    },
    {
      "inputs": [
        {
          "internalType": "uint256",
          "name": "tokenId",
          "type": "uint256"
        }
      ],
      "name": "ownerOf",
      "outputs": [
        {
          "internalType": "address",
          "name": "",
          "type": "address"
        }
      ],
      "stateMutability": "view",
      "type": "function"
    },
    {
      "inputs": [
        {
          "internalType": "address",
          "name": "operator",
          "type": "address"
        },
        {
          "internalType": "bool",
          "name": "approved",
          "type": "bool"
        }
      ],
      "name": "setApprovalForAll",
      "outputs": [],
      "stateMutability": "nonpayable",
      "type": "function"
    },
    {
      "inputs": [
        {
          "internalType": "bytes4",
          "name": "interfaceId",
          "type": "bytes4"
        }
      ],
      "name": "supportsInterface",
      "outputs": [
        {
          "internalType": "bool",
          "name": "",
          "type": "bool"
        }
      ],
      "stateMutability": "view",
      "type": "function"
    },
    {
      "inputs": [],
      "name": "symbol",
      "outputs": [
        {
          "internalType": "string",
          "name": "",
          "type": "string"
        }
      ],
      "stateMutability": "view",
      "type": "function"
    },
    {
      "inputs": [
        {
          "internalType": "uint256",
          "name": "tokenId",
          "type": "uint256"
        }
      ],
      "name": "tokenURI",
      "outputs": [
        {
          "internalType": "string",
          "name": "",
          "type": "string"
        }
      ],
      "stateMutability": "view",
      "type": "function"
    },
    {
      "inputs": [],
      "name": "totalSupply",
      "outputs": [
        {
          "internalType": "uint256",
          "name": "",
          "type": "uint256"
        }
      ],
      "stateMutability": "view",
      "type": "function"
    },
    {
      "inputs": [
        {
          "internalType": "uint256",
          "name": "_id",
          "type": "uint256"
        }
      ],
      "name": "mint",
      "outputs": [],
      "stateMutability": "payable",
      "type": "function"
    },
    {
      "inputs": [
        {
          "internalType": "address",
          "name": "from",
          "type": "address"
        },
        {
          "internalType": "address",
          "name": "to",
          "type": "address"
        },
        {
          "internalType": "uint256",
          "name": "tokenId",
          "type": "uint256"
        }
      ],
      "name": "transferFrom",
      "outputs": [],
      "stateMutability": "nonpayable",
      "type": "function"
    },
    {
      "inputs": [
        {
          "internalType": "address",
          "name": "from",
          "type": "address"
        },
        {
          "internalType": "address",
          "name": "to",
          "type": "address"
        },
        {
          "internalType": "uint256",
          "name": "tokenId",
          "type": "uint256"
        }
      ],
      "name": "safeTransferFrom",
      "outputs": [],
      "stateMutability": "nonpayable",
      "type": "function"
    },
    {
      "inputs": [
        {
          "internalType": "address",
          "name": "from",
          "type": "address"
        },
        {
          "internalType": "address",
          "name": "to",
          "type": "address"
        },
        {
          "internalType": "uint256",
          "name": "tokenId",
          "type": "uint256"
        },
        {
          "internalType": "bytes",
          "name": "_data",
          "type": "bytes"
        }
      ],
      "name": "safeTransferFrom",
      "outputs": [],
      "stateMutability": "nonpayable",
      "type": "function"
    },
    {
      "inputs": [],
      "name": "getBuildings",
      "outputs": [
        {
          "components": [
            {
              "internalType": "string",
              "name": "name",
              "type": "string"
            },
            {
              "internalType": "address",
              "name": "owner",
              "type": "address"
            },
            {
              "internalType": "int256",
              "name": "posX",
              "type": "int256"
            },
            {
              "internalType": "int256",
              "name": "posY",
              "type": "int256"
            },
            {
              "internalType": "int256",
              "name": "posZ",
              "type": "int256"
            },
            {
              "internalType": "uint256",
              "name": "sizeX",
              "type": "uint256"
            },
            {
              "internalType": "uint256",
              "name": "sizeY",
              "type": "uint256"
            },
            {
              "internalType": "uint256",
              "name": "sizeZ",
              "type": "uint256"
            }
          ],
          "internalType": "struct House.Building[]",
          "name": "",
          "type": "tuple[]"
        }
      ],
      "stateMutability": "view",
      "type": "function"
    },
    {
      "inputs": [
        {
          "internalType": "uint256",
          "name": "_id",
          "type": "uint256"
        }
      ],
      "name": "getBuilding",
      "outputs": [
        {
          "components": [
            {
              "internalType": "string",
              "name": "name",
              "type": "string"
            },
            {
              "internalType": "address",
              "name": "owner",
              "type": "address"
            },
            {
              "internalType": "int256",
              "name": "posX",
              "type": "int256"
            },
            {
              "internalType": "int256",
              "name": "posY",
              "type": "int256"
            },
            {
              "internalType": "int256",
              "name": "posZ",
              "type": "int256"
            },
            {
              "internalType": "uint256",
              "name": "sizeX",
              "type": "uint256"
            },
            {
              "internalType": "uint256",
              "name": "sizeY",
              "type": "uint256"
            },
            {
              "internalType": "uint256",
              "name": "sizeZ",
              "type": "uint256"
            }
          ],
          "internalType": "struct House.Building",
          "name": "",
          "type": "tuple"
        }
      ],
      "stateMutability": "view",
      "type": "function"
    }
  ],
  "bytecode": "0x6080604052662386f26fc10000600655600560075560006008553480156200002657600080fd5b5060405162003d0b38038062003d0b83398181016040528101906200004c919062000a1f565b828281600090805190602001906200006692919062000797565b5080600190805190602001906200007f92919062000797565b5050508060068190555060096040518061010001604052806040518060400160405280600881526020017f4d6169736f6e20310000000000000000000000000000000000000000000000008152508152602001600073ffffffffffffffffffffffffffffffffffffffff1681526020017fffffffffffffffffffffffffffffffffffffffffffffffffffffffffffffffe881526020016000815260200160008152602001600a8152602001600a8152602001600a815250908060018154018082558091505060019003906000526020600020906008020160009091909190915060008201518160000190805190602001906200017d92919062000797565b5060208201518160010160006101000a81548173ffffffffffffffffffffffffffffffffffffffff021916908373ffffffffffffffffffffffffffffffffffffffff16021790555060408201518160020155606082015181600301556080820151816004015560a0820151816005015560c0820151816006015560e08201518160070155505060096040518061010001604052806040518060400160405280600881526020017f4d6169736f6e20320000000000000000000000000000000000000000000000008152508152602001600073ffffffffffffffffffffffffffffffffffffffff1681526020017ffffffffffffffffffffffffffffffffffffffffffffffffffffffffffffffff481526020016000815260200160008152602001600a8152602001600a8152602001600a81525090806001815401808255809150506001900390600052602060002090600802016000909190919091506000820151816000019080519060200190620002f792919062000797565b5060208201518160010160006101000a81548173ffffffffffffffffffffffffffffffffffffffff021916908373ffffffffffffffffffffffffffffffffffffffff16021790555060408201518160020155606082015181600301556080820151816004015560a0820151816005015560c0820151816006015560e08201518160070155505060096040518061010001604052806040518060400160405280600881526020017f4d6169736f6e20330000000000000000000000000000000000000000000000008152508152602001600073ffffffffffffffffffffffffffffffffffffffff168152602001600081526020016000815260200160008152602001600a8152602001600a8152602001600a815250908060018154018082558091505060019003906000526020600020906008020160009091909190915060008201518160000190805190602001906200045292919062000797565b5060208201518160010160006101000a81548173ffffffffffffffffffffffffffffffffffffffff021916908373ffffffffffffffffffffffffffffffffffffffff16021790555060408201518160020155606082015181600301556080820151816004015560a0820151816005015560c0820151816006015560e08201518160070155505060096040518061010001604052806040518060400160405280600881526020017f4d6169736f6e20340000000000000000000000000000000000000000000000008152508152602001600073ffffffffffffffffffffffffffffffffffffffff168152602001600c81526020016000815260200160008152602001600a8152602001600a8152602001600a81525090806001815401808255809150506001900390600052602060002090600802016000909190919091506000820151816000019080519060200190620005ad92919062000797565b5060208201518160010160006101000a81548173ffffffffffffffffffffffffffffffffffffffff021916908373ffffffffffffffffffffffffffffffffffffffff16021790555060408201518160020155606082015181600301556080820151816004015560a0820151816005015560c0820151816006015560e08201518160070155505060096040518061010001604052806040518060400160405280600881526020017f4d6169736f6e20350000000000000000000000000000000000000000000000008152508152602001600073ffffffffffffffffffffffffffffffffffffffff168152602001601881526020016000815260200160008152602001600a8152602001600a8152602001600a815250908060018154018082558091505060019003906000526020600020906008020160009091909190915060008201518160000190805190602001906200070892919062000797565b5060208201518160010160006101000a81548173ffffffffffffffffffffffffffffffffffffffff021916908373ffffffffffffffffffffffffffffffffffffffff16021790555060408201518160020155606082015181600301556080820151816004015560a0820151816005015560c0820151816006015560e08201518160070155505050505062000b1e565b828054620007a59062000ae8565b90600052602060002090601f016020900481019282620007c9576000855562000815565b82601f10620007e457805160ff191683800117855562000815565b8280016001018555821562000815579182015b8281111562000814578251825591602001919060010190620007f7565b5b50905062000824919062000828565b5090565b5b808211156200084357600081600090555060010162000829565b5090565b6000604051905090565b600080fd5b600080fd5b600080fd5b600080fd5b6000601f19601f8301169050919050565b7f4e487b7100000000000000000000000000000000000000000000000000000000600052604160045260246000fd5b620008b08262000865565b810181811067ffffffffffffffff82111715620008d257620008d162000876565b5b80604052505050565b6000620008e762000847565b9050620008f58282620008a5565b919050565b600067ffffffffffffffff82111562000918576200091762000876565b5b620009238262000865565b9050602081019050919050565b60005b838110156200095057808201518184015260208101905062000933565b8381111562000960576000848401525b50505050565b60006200097d6200097784620008fa565b620008db565b9050828152602081018484840111156200099c576200099b62000860565b5b620009a984828562000930565b509392505050565b600082601f830112620009c957620009c86200085b565b5b8151620009db84826020860162000966565b91505092915050565b6000819050919050565b620009f981620009e4565b811462000a0557600080fd5b50565b60008151905062000a1981620009ee565b92915050565b60008060006060848603121562000a3b5762000a3a62000851565b5b600084015167ffffffffffffffff81111562000a5c5762000a5b62000856565b5b62000a6a86828701620009b1565b935050602084015167ffffffffffffffff81111562000a8e5762000a8d62000856565b5b62000a9c86828701620009b1565b925050604062000aaf8682870162000a08565b9150509250925092565b7f4e487b7100000000000000000000000000000000000000000000000000000000600052602260045260246000fd5b6000600282049050600182168062000b0157607f821691505b6020821081141562000b185762000b1762000ab9565b5b50919050565b6131dd8062000b2e6000396000f3fe60806040526004361061011f5760003560e01c806370a08231116100a0578063b88d4fde11610064578063b88d4fde14610405578063c87b56dd1461042e578063d5abeb011461046b578063d9cf6a2614610496578063e985e9c5146104c15761011f565b806370a082311461031b57806395d89b41146103585780639dfd8b0214610383578063a0712d68146103c0578063a22cb465146103dc5761011f565b806318160ddd116100e757806318160ddd1461021d57806323b872dd1461024857806342842e0e146102715780634c96a0621461029a5780636352211e146102de5761011f565b806301ffc9a71461012457806306fdde0314610161578063081812fc1461018c578063095ea7b3146101c957806313faede6146101f2575b600080fd5b34801561013057600080fd5b5061014b6004803603810190610146919061206c565b6104fe565b60405161015891906120b4565b60405180910390f35b34801561016d57600080fd5b506101766105e0565b6040516101839190612168565b60405180910390f35b34801561019857600080fd5b506101b360048036038101906101ae91906121c0565b610672565b6040516101c0919061222e565b60405180910390f35b3480156101d557600080fd5b506101f060048036038101906101eb9190612275565b6106b8565b005b3480156101fe57600080fd5b506102076107d0565b60405161021491906122c4565b60405180910390f35b34801561022957600080fd5b506102326107d6565b60405161023f91906122c4565b60405180910390f35b34801561025457600080fd5b5061026f600480360381019061026a91906122df565b6107dc565b005b34801561027d57600080fd5b50610298600480360381019061029391906122df565b6108ac565b005b3480156102a657600080fd5b506102c160048036038101906102bc91906121c0565b6108cc565b6040516102d598979695949392919061234b565b60405180910390f35b3480156102ea57600080fd5b50610305600480360381019061030091906121c0565b6109cc565b604051610312919061222e565b60405180910390f35b34801561032757600080fd5b50610342600480360381019061033d91906123d0565b610a53565b60405161034f91906122c4565b60405180910390f35b34801561036457600080fd5b5061036d610b0b565b60405161037a9190612168565b60405180910390f35b34801561038f57600080fd5b506103aa60048036038101906103a591906121c0565b610b9d565b6040516103b79190612524565b60405180910390f35b6103da60048036038101906103d591906121c0565b610d0a565b005b3480156103e857600080fd5b5061040360048036038101906103fe9190612572565b610e4c565b005b34801561041157600080fd5b5061042c600480360381019061042791906126e7565b610e62565b005b34801561043a57600080fd5b50610455600480360381019061045091906121c0565b610f34565b6040516104629190612168565b60405180910390f35b34801561047757600080fd5b50610480610f9c565b60405161048d91906122c4565b60405180910390f35b3480156104a257600080fd5b506104ab610fa2565b6040516104b891906128dc565b60405180910390f35b3480156104cd57600080fd5b506104e860048036038101906104e391906128fe565b611126565b6040516104f591906120b4565b60405180910390f35b60007f80ac58cd000000000000000000000000000000000000000000000000000000007bffffffffffffffffffffffffffffffffffffffffffffffffffffffff1916827bffffffffffffffffffffffffffffffffffffffffffffffffffffffff191614806105c957507f5b5e139f000000000000000000000000000000000000000000000000000000007bffffffffffffffffffffffffffffffffffffffffffffffffffffffff1916827bffffffffffffffffffffffffffffffffffffffffffffffffffffffff1916145b806105d957506105d8826111ba565b5b9050919050565b6060600080546105ef9061296d565b80601f016020809104026020016040519081016040528092919081815260200182805461061b9061296d565b80156106685780601f1061063d57610100808354040283529160200191610668565b820191906000526020600020905b81548152906001019060200180831161064b57829003601f168201915b5050505050905090565b600061067d82611224565b6004600083815260200190815260200160002060009054906101000a900473ffffffffffffffffffffffffffffffffffffffff169050919050565b60006106c3826109cc565b90508073ffffffffffffffffffffffffffffffffffffffff168373ffffffffffffffffffffffffffffffffffffffff161415610734576040517f08c379a000000000000000000000000000000000000000000000000000000000815260040161072b90612a11565b60405180910390fd5b8073ffffffffffffffffffffffffffffffffffffffff1661075361126f565b73ffffffffffffffffffffffffffffffffffffffff16148061078257506107818161077c61126f565b611126565b5b6107c1576040517f08c379a00000000000000000000000000000000000000000000000000000000081526004016107b890612aa3565b60405180910390fd5b6107cb8383611277565b505050565b60065481565b60085481565b6107ed6107e761126f565b82611330565b61082c576040517f08c379a000000000000000000000000000000000000000000000000000000000815260040161082390612b35565b60405180910390fd5b81600960018361083c9190612b84565b8154811061084d5761084c612bb8565b5b906000526020600020906008020160010160006101000a81548173ffffffffffffffffffffffffffffffffffffffff021916908373ffffffffffffffffffffffffffffffffffffffff1602179055506108a78383836113c5565b505050565b6108c783838360405180602001604052806000815250610e62565b505050565b600981815481106108dc57600080fd5b90600052602060002090600802016000915090508060000180546108ff9061296d565b80601f016020809104026020016040519081016040528092919081815260200182805461092b9061296d565b80156109785780601f1061094d57610100808354040283529160200191610978565b820191906000526020600020905b81548152906001019060200180831161095b57829003601f168201915b5050505050908060010160009054906101000a900473ffffffffffffffffffffffffffffffffffffffff16908060020154908060030154908060040154908060050154908060060154908060070154905088565b6000806109d8836116bf565b9050600073ffffffffffffffffffffffffffffffffffffffff168173ffffffffffffffffffffffffffffffffffffffff161415610a4a576040517f08c379a0000000000000000000000000000000000000000000000000000000008152600401610a4190612c33565b60405180910390fd5b80915050919050565b60008073ffffffffffffffffffffffffffffffffffffffff168273ffffffffffffffffffffffffffffffffffffffff161415610ac4576040517f08c379a0000000000000000000000000000000000000000000000000000000008152600401610abb90612cc5565b60405180910390fd5b600360008373ffffffffffffffffffffffffffffffffffffffff1673ffffffffffffffffffffffffffffffffffffffff168152602001908152602001600020549050919050565b606060018054610b1a9061296d565b80601f0160208091040260200160405190810160405280929190818152602001828054610b469061296d565b8015610b935780601f10610b6857610100808354040283529160200191610b93565b820191906000526020600020905b815481529060010190602001808311610b7657829003601f168201915b5050505050905090565b610ba5611fa5565b6009600183610bb49190612b84565b81548110610bc557610bc4612bb8565b5b906000526020600020906008020160405180610100016040529081600082018054610bef9061296d565b80601f0160208091040260200160405190810160405280929190818152602001828054610c1b9061296d565b8015610c685780601f10610c3d57610100808354040283529160200191610c68565b820191906000526020600020905b815481529060010190602001808311610c4b57829003601f168201915b505050505081526020016001820160009054906101000a900473ffffffffffffffffffffffffffffffffffffffff1673ffffffffffffffffffffffffffffffffffffffff1673ffffffffffffffffffffffffffffffffffffffff16815260200160028201548152602001600382015481526020016004820154815260200160058201548152602001600682015481526020016007820154815250509050919050565b60006008549050600754811115610d2057600080fd5b600073ffffffffffffffffffffffffffffffffffffffff166009600184610d479190612b84565b81548110610d5857610d57612bb8565b5b906000526020600020906008020160010160009054906101000a900473ffffffffffffffffffffffffffffffffffffffff1673ffffffffffffffffffffffffffffffffffffffff1614610daa57600080fd5b600654341015610db957600080fd5b336009600184610dc99190612b84565b81548110610dda57610dd9612bb8565b5b906000526020600020906008020160010160006101000a81548173ffffffffffffffffffffffffffffffffffffffff021916908373ffffffffffffffffffffffffffffffffffffffff1602179055506001600854610e389190612ce5565b600881905550610e4833836116fc565b5050565b610e5e610e5761126f565b838361171a565b5050565b610e73610e6d61126f565b83611330565b610eb2576040517f08c379a0000000000000000000000000000000000000000000000000000000008152600401610ea990612b35565b60405180910390fd5b826009600184610ec29190612b84565b81548110610ed357610ed2612bb8565b5b906000526020600020906008020160010160006101000a81548173ffffffffffffffffffffffffffffffffffffffff021916908373ffffffffffffffffffffffffffffffffffffffff160217905550610f2e84848484611887565b50505050565b6060610f3f82611224565b6000610f496118e3565b90506000815111610f695760405180602001604052806000815250610f94565b80610f73846118fa565b604051602001610f84929190612d77565b6040516020818303038152906040525b915050919050565b60075481565b60606009805480602002602001604051908101604052809291908181526020016000905b8282101561111d578382906000526020600020906008020160405180610100016040529081600082018054610ffa9061296d565b80601f01602080910402602001604051908101604052809291908181526020018280546110269061296d565b80156110735780601f1061104857610100808354040283529160200191611073565b820191906000526020600020905b81548152906001019060200180831161105657829003601f168201915b505050505081526020016001820160009054906101000a900473ffffffffffffffffffffffffffffffffffffffff1673ffffffffffffffffffffffffffffffffffffffff1673ffffffffffffffffffffffffffffffffffffffff168152602001600282015481526020016003820154815260200160048201548152602001600582015481526020016006820154815260200160078201548152505081526020019060010190610fc6565b50505050905090565b6000600560008473ffffffffffffffffffffffffffffffffffffffff1673ffffffffffffffffffffffffffffffffffffffff16815260200190815260200160002060008373ffffffffffffffffffffffffffffffffffffffff1673ffffffffffffffffffffffffffffffffffffffff16815260200190815260200160002060009054906101000a900460ff16905092915050565b60007f01ffc9a7000000000000000000000000000000000000000000000000000000007bffffffffffffffffffffffffffffffffffffffffffffffffffffffff1916827bffffffffffffffffffffffffffffffffffffffffffffffffffffffff1916149050919050565b61122d816119d2565b61126c576040517f08c379a000000000000000000000000000000000000000000000000000000000815260040161126390612c33565b60405180910390fd5b50565b600033905090565b816004600083815260200190815260200160002060006101000a81548173ffffffffffffffffffffffffffffffffffffffff021916908373ffffffffffffffffffffffffffffffffffffffff160217905550808273ffffffffffffffffffffffffffffffffffffffff166112ea836109cc565b73ffffffffffffffffffffffffffffffffffffffff167f8c5be1e5ebec7d5bd14f71427d1e84f3dd0314c0f7b2291e5b200ac8c7c3b92560405160405180910390a45050565b60008061133c836109cc565b90508073ffffffffffffffffffffffffffffffffffffffff168473ffffffffffffffffffffffffffffffffffffffff16148061137e575061137d8185611126565b5b806113bc57508373ffffffffffffffffffffffffffffffffffffffff166113a484610672565b73ffffffffffffffffffffffffffffffffffffffff16145b91505092915050565b8273ffffffffffffffffffffffffffffffffffffffff166113e5826109cc565b73ffffffffffffffffffffffffffffffffffffffff161461143b576040517f08c379a000000000000000000000000000000000000000000000000000000000815260040161143290612e0d565b60405180910390fd5b600073ffffffffffffffffffffffffffffffffffffffff168273ffffffffffffffffffffffffffffffffffffffff1614156114ab576040517f08c379a00000000000000000000000000000000000000000000000000000000081526004016114a290612e9f565b60405180910390fd5b6114b88383836001611a13565b8273ffffffffffffffffffffffffffffffffffffffff166114d8826109cc565b73ffffffffffffffffffffffffffffffffffffffff161461152e576040517f08c379a000000000000000000000000000000000000000000000000000000000815260040161152590612e0d565b60405180910390fd5b6004600082815260200190815260200160002060006101000a81549073ffffffffffffffffffffffffffffffffffffffff02191690556001600360008573ffffffffffffffffffffffffffffffffffffffff1673ffffffffffffffffffffffffffffffffffffffff168152602001908152602001600020600082825403925050819055506001600360008473ffffffffffffffffffffffffffffffffffffffff1673ffffffffffffffffffffffffffffffffffffffff16815260200190815260200160002060008282540192505081905550816002600083815260200190815260200160002060006101000a81548173ffffffffffffffffffffffffffffffffffffffff021916908373ffffffffffffffffffffffffffffffffffffffff160217905550808273ffffffffffffffffffffffffffffffffffffffff168473ffffffffffffffffffffffffffffffffffffffff167fddf252ad1be2c89b69c2b068fc378daa952ba7f163c4a11628f55a4df523b3ef60405160405180910390a46116ba8383836001611a19565b505050565b60006002600083815260200190815260200160002060009054906101000a900473ffffffffffffffffffffffffffffffffffffffff169050919050565b611716828260405180602001604052806000815250611a1f565b5050565b8173ffffffffffffffffffffffffffffffffffffffff168373ffffffffffffffffffffffffffffffffffffffff161415611789576040517f08c379a000000000000000000000000000000000000000000000000000000000815260040161178090612f0b565b60405180910390fd5b80600560008573ffffffffffffffffffffffffffffffffffffffff1673ffffffffffffffffffffffffffffffffffffffff16815260200190815260200160002060008473ffffffffffffffffffffffffffffffffffffffff1673ffffffffffffffffffffffffffffffffffffffff16815260200190815260200160002060006101000a81548160ff0219169083151502179055508173ffffffffffffffffffffffffffffffffffffffff168373ffffffffffffffffffffffffffffffffffffffff167f17307eab39ab6107e8899845ad3d59bd9653f200f220920489ca2b5937696c318360405161187a91906120b4565b60405180910390a3505050565b6118928484846113c5565b61189e84848484611a7a565b6118dd576040517f08c379a00000000000000000000000000000000000000000000000000000000081526004016118d490612f9d565b60405180910390fd5b50505050565b606060405180602001604052806000815250905090565b60606000600161190984611c11565b01905060008167ffffffffffffffff811115611928576119276125bc565b5b6040519080825280601f01601f19166020018201604052801561195a5781602001600182028036833780820191505090505b509050600082602001820190505b6001156119c7578080600190039150507f3031323334353637383961626364656600000000000000000000000000000000600a86061a8153600a85816119b1576119b0612fbd565b5b04945060008514156119c2576119c7565b611968565b819350505050919050565b60008073ffffffffffffffffffffffffffffffffffffffff166119f4836116bf565b73ffffffffffffffffffffffffffffffffffffffff1614159050919050565b50505050565b50505050565b611a298383611d64565b611a366000848484611a7a565b611a75576040517f08c379a0000000000000000000000000000000000000000000000000000000008152600401611a6c90612f9d565b60405180910390fd5b505050565b6000611a9b8473ffffffffffffffffffffffffffffffffffffffff16611f82565b15611c04578373ffffffffffffffffffffffffffffffffffffffff1663150b7a02611ac461126f565b8786866040518563ffffffff1660e01b8152600401611ae69493929190613041565b602060405180830381600087803b158015611b0057600080fd5b505af1925050508015611b3157506040513d601f19601f82011682018060405250810190611b2e91906130a2565b60015b611bb4573d8060008114611b61576040519150601f19603f3d011682016040523d82523d6000602084013e611b66565b606091505b50600081511415611bac576040517f08c379a0000000000000000000000000000000000000000000000000000000008152600401611ba390612f9d565b60405180910390fd5b805181602001fd5b63150b7a0260e01b7bffffffffffffffffffffffffffffffffffffffffffffffffffffffff1916817bffffffffffffffffffffffffffffffffffffffffffffffffffffffff191614915050611c09565b600190505b949350505050565b600080600090507a184f03e93ff9f4daa797ed6e38ed64bf6a1f0100000000000000008310611c6f577a184f03e93ff9f4daa797ed6e38ed64bf6a1f0100000000000000008381611c6557611c64612fbd565b5b0492506040810190505b6d04ee2d6d415b85acef81000000008310611cac576d04ee2d6d415b85acef81000000008381611ca257611ca1612fbd565b5b0492506020810190505b662386f26fc100008310611cdb57662386f26fc100008381611cd157611cd0612fbd565b5b0492506010810190505b6305f5e1008310611d04576305f5e1008381611cfa57611cf9612fbd565b5b0492506008810190505b6127108310611d29576127108381611d1f57611d1e612fbd565b5b0492506004810190505b60648310611d4c5760648381611d4257611d41612fbd565b5b0492506002810190505b600a8310611d5b576001810190505b80915050919050565b600073ffffffffffffffffffffffffffffffffffffffff168273ffffffffffffffffffffffffffffffffffffffff161415611dd4576040517f08c379a0000000000000000000000000000000000000000000000000000000008152600401611dcb9061311b565b60405180910390fd5b611ddd816119d2565b15611e1d576040517f08c379a0000000000000000000000000000000000000000000000000000000008152600401611e1490613187565b60405180910390fd5b611e2b600083836001611a13565b611e34816119d2565b15611e74576040517f08c379a0000000000000000000000000000000000000000000000000000000008152600401611e6b90613187565b60405180910390fd5b6001600360008473ffffffffffffffffffffffffffffffffffffffff1673ffffffffffffffffffffffffffffffffffffffff16815260200190815260200160002060008282540192505081905550816002600083815260200190815260200160002060006101000a81548173ffffffffffffffffffffffffffffffffffffffff021916908373ffffffffffffffffffffffffffffffffffffffff160217905550808273ffffffffffffffffffffffffffffffffffffffff16600073ffffffffffffffffffffffffffffffffffffffff167fddf252ad1be2c89b69c2b068fc378daa952ba7f163c4a11628f55a4df523b3ef60405160405180910390a4611f7e600083836001611a19565b5050565b6000808273ffffffffffffffffffffffffffffffffffffffff163b119050919050565b60405180610100016040528060608152602001600073ffffffffffffffffffffffffffffffffffffffff1681526020016000815260200160008152602001600081526020016000815260200160008152602001600081525090565b6000604051905090565b600080fd5b600080fd5b60007fffffffff0000000000000000000000000000000000000000000000000000000082169050919050565b61204981612014565b811461205457600080fd5b50565b60008135905061206681612040565b92915050565b6000602082840312156120825761208161200a565b5b600061209084828501612057565b91505092915050565b60008115159050919050565b6120ae81612099565b82525050565b60006020820190506120c960008301846120a5565b92915050565b600081519050919050565b600082825260208201905092915050565b60005b838110156121095780820151818401526020810190506120ee565b83811115612118576000848401525b50505050565b6000601f19601f8301169050919050565b600061213a826120cf565b61214481856120da565b93506121548185602086016120eb565b61215d8161211e565b840191505092915050565b60006020820190508181036000830152612182818461212f565b905092915050565b6000819050919050565b61219d8161218a565b81146121a857600080fd5b50565b6000813590506121ba81612194565b92915050565b6000602082840312156121d6576121d561200a565b5b60006121e4848285016121ab565b91505092915050565b600073ffffffffffffffffffffffffffffffffffffffff82169050919050565b6000612218826121ed565b9050919050565b6122288161220d565b82525050565b6000602082019050612243600083018461221f565b92915050565b6122528161220d565b811461225d57600080fd5b50565b60008135905061226f81612249565b92915050565b6000806040838503121561228c5761228b61200a565b5b600061229a85828601612260565b92505060206122ab858286016121ab565b9150509250929050565b6122be8161218a565b82525050565b60006020820190506122d960008301846122b5565b92915050565b6000806000606084860312156122f8576122f761200a565b5b600061230686828701612260565b935050602061231786828701612260565b9250506040612328868287016121ab565b9150509250925092565b6000819050919050565b61234581612332565b82525050565b6000610100820190508181036000830152612366818b61212f565b9050612375602083018a61221f565b612382604083018961233c565b61238f606083018861233c565b61239c608083018761233c565b6123a960a08301866122b5565b6123b660c08301856122b5565b6123c360e08301846122b5565b9998505050505050505050565b6000602082840312156123e6576123e561200a565b5b60006123f484828501612260565b91505092915050565b600082825260208201905092915050565b6000612419826120cf565b61242381856123fd565b93506124338185602086016120eb565b61243c8161211e565b840191505092915050565b6124508161220d565b82525050565b61245f81612332565b82525050565b61246e8161218a565b82525050565b6000610100830160008301518482036000860152612492828261240e565b91505060208301516124a76020860182612447565b5060408301516124ba6040860182612456565b5060608301516124cd6060860182612456565b5060808301516124e06080860182612456565b5060a08301516124f360a0860182612465565b5060c083015161250660c0860182612465565b5060e083015161251960e0860182612465565b508091505092915050565b6000602082019050818103600083015261253e8184612474565b905092915050565b61254f81612099565b811461255a57600080fd5b50565b60008135905061256c81612546565b92915050565b600080604083850312156125895761258861200a565b5b600061259785828601612260565b92505060206125a88582860161255d565b9150509250929050565b600080fd5b600080fd5b7f4e487b7100000000000000000000000000000000000000000000000000000000600052604160045260246000fd5b6125f48261211e565b810181811067ffffffffffffffff82111715612613576126126125bc565b5b80604052505050565b6000612626612000565b905061263282826125eb565b919050565b600067ffffffffffffffff821115612652576126516125bc565b5b61265b8261211e565b9050602081019050919050565b82818337600083830152505050565b600061268a61268584612637565b61261c565b9050828152602081018484840111156126a6576126a56125b7565b5b6126b1848285612668565b509392505050565b600082601f8301126126ce576126cd6125b2565b5b81356126de848260208601612677565b91505092915050565b600080600080608085870312156127015761270061200a565b5b600061270f87828801612260565b945050602061272087828801612260565b9350506040612731878288016121ab565b925050606085013567ffffffffffffffff8111156127525761275161200f565b5b61275e878288016126b9565b91505092959194509250565b600081519050919050565b600082825260208201905092915050565b6000819050602082019050919050565b60006101008301600083015184820360008601526127b4828261240e565b91505060208301516127c96020860182612447565b5060408301516127dc6040860182612456565b5060608301516127ef6060860182612456565b5060808301516128026080860182612456565b5060a083015161281560a0860182612465565b5060c083015161282860c0860182612465565b5060e083015161283b60e0860182612465565b508091505092915050565b60006128528383612796565b905092915050565b6000602082019050919050565b60006128728261276a565b61287c8185612775565b93508360208202850161288e85612786565b8060005b858110156128ca57848403895281516128ab8582612846565b94506128b68361285a565b925060208a01995050600181019050612892565b50829750879550505050505092915050565b600060208201905081810360008301526128f68184612867565b905092915050565b600080604083850312156129155761291461200a565b5b600061292385828601612260565b925050602061293485828601612260565b9150509250929050565b7f4e487b7100000000000000000000000000000000000000000000000000000000600052602260045260246000fd5b6000600282049050600182168061298557607f821691505b602082108114156129995761299861293e565b5b50919050565b7f4552433732313a20617070726f76616c20746f2063757272656e74206f776e6560008201527f7200000000000000000000000000000000000000000000000000000000000000602082015250565b60006129fb6021836120da565b9150612a068261299f565b604082019050919050565b60006020820190508181036000830152612a2a816129ee565b9050919050565b7f4552433732313a20617070726f76652063616c6c6572206973206e6f7420746f60008201527f6b656e206f776e6572206f7220617070726f76656420666f7220616c6c000000602082015250565b6000612a8d603d836120da565b9150612a9882612a31565b604082019050919050565b60006020820190508181036000830152612abc81612a80565b9050919050565b7f4552433732313a207472616e736665722063616c6c6572206973206e6f74206f60008201527f776e6572206e6f7220617070726f766564000000000000000000000000000000602082015250565b6000612b1f6031836120da565b9150612b2a82612ac3565b604082019050919050565b60006020820190508181036000830152612b4e81612b12565b9050919050565b7f4e487b7100000000000000000000000000000000000000000000000000000000600052601160045260246000fd5b6000612b8f8261218a565b9150612b9a8361218a565b925082821015612bad57612bac612b55565b5b828203905092915050565b7f4e487b7100000000000000000000000000000000000000000000000000000000600052603260045260246000fd5b7f4552433732313a20696e76616c696420746f6b656e2049440000000000000000600082015250565b6000612c1d6018836120da565b9150612c2882612be7565b602082019050919050565b60006020820190508181036000830152612c4c81612c10565b9050919050565b7f4552433732313a2061646472657373207a65726f206973206e6f74206120766160008201527f6c6964206f776e65720000000000000000000000000000000000000000000000602082015250565b6000612caf6029836120da565b9150612cba82612c53565b604082019050919050565b60006020820190508181036000830152612cde81612ca2565b9050919050565b6000612cf08261218a565b9150612cfb8361218a565b9250827fffffffffffffffffffffffffffffffffffffffffffffffffffffffffffffffff03821115612d3057612d2f612b55565b5b828201905092915050565b600081905092915050565b6000612d51826120cf565b612d5b8185612d3b565b9350612d6b8185602086016120eb565b80840191505092915050565b6000612d838285612d46565b9150612d8f8284612d46565b91508190509392505050565b7f4552433732313a207472616e736665722066726f6d20696e636f72726563742060008201527f6f776e6572000000000000000000000000000000000000000000000000000000602082015250565b6000612df76025836120da565b9150612e0282612d9b565b604082019050919050565b60006020820190508181036000830152612e2681612dea565b9050919050565b7f4552433732313a207472616e7366657220746f20746865207a65726f2061646460008201527f7265737300000000000000000000000000000000000000000000000000000000602082015250565b6000612e896024836120da565b9150612e9482612e2d565b604082019050919050565b60006020820190508181036000830152612eb881612e7c565b9050919050565b7f4552433732313a20617070726f766520746f2063616c6c657200000000000000600082015250565b6000612ef56019836120da565b9150612f0082612ebf565b602082019050919050565b60006020820190508181036000830152612f2481612ee8565b9050919050565b7f4552433732313a207472616e7366657220746f206e6f6e20455243373231526560008201527f63656976657220696d706c656d656e7465720000000000000000000000000000602082015250565b6000612f876032836120da565b9150612f9282612f2b565b604082019050919050565b60006020820190508181036000830152612fb681612f7a565b9050919050565b7f4e487b7100000000000000000000000000000000000000000000000000000000600052601260045260246000fd5b600081519050919050565b600082825260208201905092915050565b600061301382612fec565b61301d8185612ff7565b935061302d8185602086016120eb565b6130368161211e565b840191505092915050565b6000608082019050613056600083018761221f565b613063602083018661221f565b61307060408301856122b5565b81810360608301526130828184613008565b905095945050505050565b60008151905061309c81612040565b92915050565b6000602082840312156130b8576130b761200a565b5b60006130c68482850161308d565b91505092915050565b7f4552433732313a206d696e7420746f20746865207a65726f2061646472657373600082015250565b60006131056020836120da565b9150613110826130cf565b602082019050919050565b60006020820190508181036000830152613134816130f8565b9050919050565b7f4552433732313a20746f6b656e20616c7265616479206d696e74656400000000600082015250565b6000613171601c836120da565b915061317c8261313b565b602082019050919050565b600060208201905081810360008301526131a081613164565b905091905056fea2646970667358221220ec32e121ee1d3a60632eb170a62a1ffc4892d941102c649d5d1088c68558627264736f6c63430008090033",
  "immutableReferences": {},
  "source": "// SPDX-License-Identifier: MIT\r\npragma solidity ^0.8.0;\r\n\r\nimport \"@openzeppelin/contracts/token/ERC721/ERC721.sol\";\r\n\r\ncontract House is ERC721 {\r\n    uint256 public cost = 0.01 ether;\r\n    uint256 public maxSupply = 5;\r\n    uint256 public totalSupply = 0;\r\n\r\n    struct Building {\r\n        string name;\r\n        address owner;\r\n        int256 posX;\r\n        int256 posY;\r\n        int256 posZ;\r\n        uint256 sizeX;\r\n        uint256 sizeY;\r\n        uint256 sizeZ;\r\n    }\r\n\r\n    Building[] public buildings;\r\n\r\n    constructor(\r\n        string memory _name,\r\n        string memory _symbol,\r\n        uint256 _cost\r\n    ) ERC721(_name, _symbol) {\r\n        cost = _cost;\r\n\r\n        buildings.push(Building(\"Maison 1\", address(0x0), -24, 0, 0, 10, 10, 10));\r\n        buildings.push(Building(\"Maison 2\", address(0x0), -12, 0, 0, 10, 10, 10));\r\n        buildings.push(Building(\"Maison 3\", address(0x0), 0, 0, 0, 10, 10, 10));\r\n        buildings.push(Building(\"Maison 4\", address(0x0), 12, 0, 0, 10, 10, 10));\r\n        buildings.push(Building(\"Maison 5\", address(0x0), 24, 0, 0, 10, 10, 10));\r\n    }\r\n\r\n    function mint(uint256 _id) public payable {\r\n        uint256 supply = totalSupply;\r\n        require(supply <= maxSupply);\r\n        require(buildings[_id - 1].owner == address(0x0));\r\n        require(msg.value >= cost);\r\n\r\n        // NOTE: tokenID always starts from 1, but our array starts from 0\r\n        buildings[_id - 1].owner = msg.sender;\r\n        totalSupply = totalSupply + 1;\r\n\r\n        _safeMint(msg.sender, _id);\r\n    }\r\n\r\n    function transferFrom(\r\n        address from,\r\n        address to,\r\n        uint256 tokenId\r\n    ) public override {\r\n        require(\r\n            _isApprovedOrOwner(_msgSender(), tokenId),\r\n            \"ERC721: transfer caller is not owner nor approved\"\r\n        );\r\n\r\n        // Update Building ownership\r\n        buildings[tokenId - 1].owner = to;\r\n\r\n        _transfer(from, to, tokenId);\r\n    }\r\n\r\n    function safeTransferFrom(\r\n        address from,\r\n        address to,\r\n        uint256 tokenId,\r\n        bytes memory _data\r\n    ) public override {\r\n        require(\r\n            _isApprovedOrOwner(_msgSender(), tokenId),\r\n            \"ERC721: transfer caller is not owner nor approved\"\r\n        );\r\n\r\n        // Update Building ownership\r\n        buildings[tokenId - 1].owner = to;\r\n\r\n        _safeTransfer(from, to, tokenId, _data);\r\n    }\r\n\r\n    // Public View Functions\r\n    function getBuildings() public view returns (Building[] memory) {\r\n        return buildings;\r\n    }\r\n\r\n    function getBuilding(uint256 _id) public view returns (Building memory) {\r\n        return buildings[_id - 1];\r\n    }\r\n}\r\n",
  "sourcePath": "C:\\Users\\MATHI\\OneDrive\\Documents\\Epsi\\Metaverse\\maison\\src\\contracts\\HouseNFT.sol",
  "compiler": {
    "name": "solc",
    "version": "0.8.9+commit.e5eed63a.Emscripten.clang"
  },
  "schemaVersion": "3.4.14",
  "updatedAt": "2023-05-31T16:02:49.143Z",
  "devdoc": {
    "kind": "dev",
    "methods": {
      "approve(address,uint256)": {
        "details": "See {IERC721-approve}."
      },
      "balanceOf(address)": {
        "details": "See {IERC721-balanceOf}."
      },
      "getApproved(uint256)": {
        "details": "See {IERC721-getApproved}."
      },
      "isApprovedForAll(address,address)": {
        "details": "See {IERC721-isApprovedForAll}."
      },
      "name()": {
        "details": "See {IERC721Metadata-name}."
      },
      "ownerOf(uint256)": {
        "details": "See {IERC721-ownerOf}."
      },
      "safeTransferFrom(address,address,uint256)": {
        "details": "See {IERC721-safeTransferFrom}."
      },
      "setApprovalForAll(address,bool)": {
        "details": "See {IERC721-setApprovalForAll}."
      },
      "supportsInterface(bytes4)": {
        "details": "See {IERC165-supportsInterface}."
      },
      "symbol()": {
        "details": "See {IERC721Metadata-symbol}."
      },
      "tokenURI(uint256)": {
        "details": "See {IERC721Metadata-tokenURI}."
      },
      "transferFrom(address,address,uint256)": {
        "details": "See {IERC721-transferFrom}."
      }
    },
    "version": 1
  },
  "userdoc": {
    "kind": "user",
    "methods": {},
    "version": 1
  }
}