{
  "contractName": "Land",
  "abi": [
    {
      "inputs": [
        {
          "internalType": "string",
          "name": "_name",
          "type": "string"
        },
        {
          "internalType": "string",
          "name": "_symbol",
          "type": "string"
        },
        {
          "internalType": "uint256",
          "name": "_cost",
          "type": "uint256"
        }
      ],
      "stateMutability": "nonpayable",
      "type": "constructor"
    },
    {
      "anonymous": false,
      "inputs": [
        {
          "indexed": true,
          "internalType": "address",
          "name": "owner",
          "type": "address"
        },
        {
          "indexed": true,
          "internalType": "address",
          "name": "approved",
          "type": "address"
        },
        {
          "indexed": true,
          "internalType": "uint256",
          "name": "tokenId",
          "type": "uint256"
        }
      ],
      "name": "Approval",
      "type": "event"
    },
    {
      "anonymous": false,
      "inputs": [
        {
          "indexed": true,
          "internalType": "address",
          "name": "owner",
          "type": "address"
        },
        {
          "indexed": true,
          "internalType": "address",
          "name": "operator",
          "type": "address"
        },
        {
          "indexed": false,
          "internalType": "bool",
          "name": "approved",
          "type": "bool"
        }
      ],
      "name": "ApprovalForAll",
      "type": "event"
    },
    {
      "anonymous": false,
      "inputs": [
        {
          "indexed": true,
          "internalType": "address",
          "name": "from",
          "type": "address"
        },
        {
          "indexed": true,
          "internalType": "address",
          "name": "to",
          "type": "address"
        },
        {
          "indexed": true,
          "internalType": "uint256",
          "name": "tokenId",
          "type": "uint256"
        }
      ],
      "name": "Transfer",
      "type": "event"
    },
    {
      "inputs": [
        {
          "internalType": "address",
          "name": "to",
          "type": "address"
        },
        {
          "internalType": "uint256",
          "name": "tokenId",
          "type": "uint256"
        }
      ],
      "name": "approve",
      "outputs": [],
      "stateMutability": "nonpayable",
      "type": "function"
    },
    {
      "inputs": [
        {
          "internalType": "address",
          "name": "owner",
          "type": "address"
        }
      ],
      "name": "balanceOf",
      "outputs": [
        {
          "internalType": "uint256",
          "name": "",
          "type": "uint256"
        }
      ],
      "stateMutability": "view",
      "type": "function"
    },
    {
      "inputs": [
        {
          "internalType": "uint256",
          "name": "",
          "type": "uint256"
        }
      ],
      "name": "buildings",
      "outputs": [
        {
          "internalType": "string",
          "name": "name",
          "type": "string"
        },
        {
          "internalType": "address",
          "name": "owner",
          "type": "address"
        },
        {
          "internalType": "int256",
          "name": "posX",
          "type": "int256"
        },
        {
          "internalType": "int256",
          "name": "posY",
          "type": "int256"
        },
        {
          "internalType": "int256",
          "name": "posZ",
          "type": "int256"
        },
        {
          "internalType": "uint256",
          "name": "sizeX",
          "type": "uint256"
        },
        {
          "internalType": "uint256",
          "name": "sizeY",
          "type": "uint256"
        },
        {
          "internalType": "uint256",
          "name": "sizeZ",
          "type": "uint256"
        }
      ],
      "stateMutability": "view",
      "type": "function"
    },
    {
      "inputs": [],
      "name": "cost",
      "outputs": [
        {
          "internalType": "uint256",
          "name": "",
          "type": "uint256"
        }
      ],
      "stateMutability": "view",
      "type": "function"
    },
    {
      "inputs": [
        {
          "internalType": "uint256",
          "name": "tokenId",
          "type": "uint256"
        }
      ],
      "name": "getApproved",
      "outputs": [
        {
          "internalType": "address",
          "name": "",
          "type": "address"
        }
      ],
      "stateMutability": "view",
      "type": "function"
    },
    {
      "inputs": [
        {
          "internalType": "address",
          "name": "owner",
          "type": "address"
        },
        {
          "internalType": "address",
          "name": "operator",
          "type": "address"
        }
      ],
      "name": "isApprovedForAll",
      "outputs": [
        {
          "internalType": "bool",
          "name": "",
          "type": "bool"
        }
      ],
      "stateMutability": "view",
      "type": "function"
    },
    {
      "inputs": [],
      "name": "maxSupply",
      "outputs": [
        {
          "internalType": "uint256",
          "name": "",
          "type": "uint256"
        }
      ],
      "stateMutability": "view",
      "type": "function"
    },
    {
      "inputs": [],
      "name": "name",
      "outputs": [
        {
          "internalType": "string",
          "name": "",
          "type": "string"
        }
      ],
      "stateMutability": "view",
      "type": "function"
    },
    {
      "inputs": [
        {
          "internalType": "uint256",
          "name": "tokenId",
          "type": "uint256"
        }
      ],
      "name": "ownerOf",
      "outputs": [
        {
          "internalType": "address",
          "name": "",
          "type": "address"
        }
      ],
      "stateMutability": "view",
      "type": "function"
    },
    {
      "inputs": [
        {
          "internalType": "address",
          "name": "operator",
          "type": "address"
        },
        {
          "internalType": "bool",
          "name": "approved",
          "type": "bool"
        }
      ],
      "name": "setApprovalForAll",
      "outputs": [],
      "stateMutability": "nonpayable",
      "type": "function"
    },
    {
      "inputs": [
        {
          "internalType": "bytes4",
          "name": "interfaceId",
          "type": "bytes4"
        }
      ],
      "name": "supportsInterface",
      "outputs": [
        {
          "internalType": "bool",
          "name": "",
          "type": "bool"
        }
      ],
      "stateMutability": "view",
      "type": "function"
    },
    {
      "inputs": [],
      "name": "symbol",
      "outputs": [
        {
          "internalType": "string",
          "name": "",
          "type": "string"
        }
      ],
      "stateMutability": "view",
      "type": "function"
    },
    {
      "inputs": [
        {
          "internalType": "uint256",
          "name": "tokenId",
          "type": "uint256"
        }
      ],
      "name": "tokenURI",
      "outputs": [
        {
          "internalType": "string",
          "name": "",
          "type": "string"
        }
      ],
      "stateMutability": "view",
      "type": "function"
    },
    {
      "inputs": [],
      "name": "totalSupply",
      "outputs": [
        {
          "internalType": "uint256",
          "name": "",
          "type": "uint256"
        }
      ],
      "stateMutability": "view",
      "type": "function"
    },
    {
      "inputs": [
        {
          "internalType": "uint256",
          "name": "_id",
          "type": "uint256"
        }
      ],
      "name": "mint",
      "outputs": [],
      "stateMutability": "payable",
      "type": "function"
    },
    {
      "inputs": [
        {
          "internalType": "address",
          "name": "from",
          "type": "address"
        },
        {
          "internalType": "address",
          "name": "to",
          "type": "address"
        },
        {
          "internalType": "uint256",
          "name": "tokenId",
          "type": "uint256"
        }
      ],
      "name": "transferFrom",
      "outputs": [],
      "stateMutability": "nonpayable",
      "type": "function"
    },
    {
      "inputs": [
        {
          "internalType": "address",
          "name": "from",
          "type": "address"
        },
        {
          "internalType": "address",
          "name": "to",
          "type": "address"
        },
        {
          "internalType": "uint256",
          "name": "tokenId",
          "type": "uint256"
        }
      ],
      "name": "safeTransferFrom",
      "outputs": [],
      "stateMutability": "nonpayable",
      "type": "function"
    },
    {
      "inputs": [
        {
          "internalType": "address",
          "name": "from",
          "type": "address"
        },
        {
          "internalType": "address",
          "name": "to",
          "type": "address"
        },
        {
          "internalType": "uint256",
          "name": "tokenId",
          "type": "uint256"
        },
        {
          "internalType": "bytes",
          "name": "_data",
          "type": "bytes"
        }
      ],
      "name": "safeTransferFrom",
      "outputs": [],
      "stateMutability": "nonpayable",
      "type": "function"
    },
    {
      "inputs": [],
      "name": "getBuildings",
      "outputs": [
        {
          "components": [
            {
              "internalType": "string",
              "name": "name",
              "type": "string"
            },
            {
              "internalType": "address",
              "name": "owner",
              "type": "address"
            },
            {
              "internalType": "int256",
              "name": "posX",
              "type": "int256"
            },
            {
              "internalType": "int256",
              "name": "posY",
              "type": "int256"
            },
            {
              "internalType": "int256",
              "name": "posZ",
              "type": "int256"
            },
            {
              "internalType": "uint256",
              "name": "sizeX",
              "type": "uint256"
            },
            {
              "internalType": "uint256",
              "name": "sizeY",
              "type": "uint256"
            },
            {
              "internalType": "uint256",
              "name": "sizeZ",
              "type": "uint256"
            }
          ],
          "internalType": "struct Land.Building[]",
          "name": "",
          "type": "tuple[]"
        }
      ],
      "stateMutability": "view",
      "type": "function"
    },
    {
      "inputs": [
        {
          "internalType": "uint256",
          "name": "_id",
          "type": "uint256"
        }
      ],
      "name": "getBuilding",
      "outputs": [
        {
          "components": [
            {
              "internalType": "string",
              "name": "name",
              "type": "string"
            },
            {
              "internalType": "address",
              "name": "owner",
              "type": "address"
            },
            {
              "internalType": "int256",
              "name": "posX",
              "type": "int256"
            },
            {
              "internalType": "int256",
              "name": "posY",
              "type": "int256"
            },
            {
              "internalType": "int256",
              "name": "posZ",
              "type": "int256"
            },
            {
              "internalType": "uint256",
              "name": "sizeX",
              "type": "uint256"
            },
            {
              "internalType": "uint256",
              "name": "sizeY",
              "type": "uint256"
            },
            {
              "internalType": "uint256",
              "name": "sizeZ",
              "type": "uint256"
            }
          ],
          "internalType": "struct Land.Building",
          "name": "",
          "type": "tuple"
        }
      ],
      "stateMutability": "view",
      "type": "function"
    }
  ],
  "bytecode": "0x6080604052670de0b6b3a7640000600655600560075560006008553480156200002757600080fd5b5060405162003d1238038062003d1283398181016040528101906200004d919062000a20565b828281600090805190602001906200006792919062000798565b5080600190805190602001906200008092919062000798565b5050508060068190555060096040518061010001604052806040518060400160405280600881526020017f4d6169736f6e20310000000000000000000000000000000000000000000000008152508152602001600073ffffffffffffffffffffffffffffffffffffffff1681526020017fffffffffffffffffffffffffffffffffffffffffffffffffffffffffffffffe881526020016000815260200160008152602001600a8152602001600a8152602001600a815250908060018154018082558091505060019003906000526020600020906008020160009091909190915060008201518160000190805190602001906200017e92919062000798565b5060208201518160010160006101000a81548173ffffffffffffffffffffffffffffffffffffffff021916908373ffffffffffffffffffffffffffffffffffffffff16021790555060408201518160020155606082015181600301556080820151816004015560a0820151816005015560c0820151816006015560e08201518160070155505060096040518061010001604052806040518060400160405280600881526020017f4d6169736f6e20320000000000000000000000000000000000000000000000008152508152602001600073ffffffffffffffffffffffffffffffffffffffff1681526020017ffffffffffffffffffffffffffffffffffffffffffffffffffffffffffffffff481526020016000815260200160008152602001600a8152602001600a8152602001600a81525090806001815401808255809150506001900390600052602060002090600802016000909190919091506000820151816000019080519060200190620002f892919062000798565b5060208201518160010160006101000a81548173ffffffffffffffffffffffffffffffffffffffff021916908373ffffffffffffffffffffffffffffffffffffffff16021790555060408201518160020155606082015181600301556080820151816004015560a0820151816005015560c0820151816006015560e08201518160070155505060096040518061010001604052806040518060400160405280600881526020017f4d6169736f6e20330000000000000000000000000000000000000000000000008152508152602001600073ffffffffffffffffffffffffffffffffffffffff168152602001600081526020016000815260200160008152602001600a8152602001600a8152602001600a815250908060018154018082558091505060019003906000526020600020906008020160009091909190915060008201518160000190805190602001906200045392919062000798565b5060208201518160010160006101000a81548173ffffffffffffffffffffffffffffffffffffffff021916908373ffffffffffffffffffffffffffffffffffffffff16021790555060408201518160020155606082015181600301556080820151816004015560a0820151816005015560c0820151816006015560e08201518160070155505060096040518061010001604052806040518060400160405280600881526020017f4d6169736f6e20340000000000000000000000000000000000000000000000008152508152602001600073ffffffffffffffffffffffffffffffffffffffff168152602001600c81526020016000815260200160008152602001600a8152602001600a8152602001600a81525090806001815401808255809150506001900390600052602060002090600802016000909190919091506000820151816000019080519060200190620005ae92919062000798565b5060208201518160010160006101000a81548173ffffffffffffffffffffffffffffffffffffffff021916908373ffffffffffffffffffffffffffffffffffffffff16021790555060408201518160020155606082015181600301556080820151816004015560a0820151816005015560c0820151816006015560e08201518160070155505060096040518061010001604052806040518060400160405280600881526020017f4d6169736f6e20350000000000000000000000000000000000000000000000008152508152602001600073ffffffffffffffffffffffffffffffffffffffff168152602001601881526020016000815260200160008152602001600a8152602001600a8152602001600a815250908060018154018082558091505060019003906000526020600020906008020160009091909190915060008201518160000190805190602001906200070992919062000798565b5060208201518160010160006101000a81548173ffffffffffffffffffffffffffffffffffffffff021916908373ffffffffffffffffffffffffffffffffffffffff16021790555060408201518160020155606082015181600301556080820151816004015560a0820151816005015560c0820151816006015560e08201518160070155505050505062000b1f565b828054620007a69062000ae9565b90600052602060002090601f016020900481019282620007ca576000855562000816565b82601f10620007e557805160ff191683800117855562000816565b8280016001018555821562000816579182015b8281111562000815578251825591602001919060010190620007f8565b5b50905062000825919062000829565b5090565b5b80821115620008445760008160009055506001016200082a565b5090565b6000604051905090565b600080fd5b600080fd5b600080fd5b600080fd5b6000601f19601f8301169050919050565b7f4e487b7100000000000000000000000000000000000000000000000000000000600052604160045260246000fd5b620008b18262000866565b810181811067ffffffffffffffff82111715620008d357620008d262000877565b5b80604052505050565b6000620008e862000848565b9050620008f68282620008a6565b919050565b600067ffffffffffffffff82111562000919576200091862000877565b5b620009248262000866565b9050602081019050919050565b60005b838110156200095157808201518184015260208101905062000934565b8381111562000961576000848401525b50505050565b60006200097e6200097884620008fb565b620008dc565b9050828152602081018484840111156200099d576200099c62000861565b5b620009aa84828562000931565b509392505050565b600082601f830112620009ca57620009c96200085c565b5b8151620009dc84826020860162000967565b91505092915050565b6000819050919050565b620009fa81620009e5565b811462000a0657600080fd5b50565b60008151905062000a1a81620009ef565b92915050565b60008060006060848603121562000a3c5762000a3b62000852565b5b600084015167ffffffffffffffff81111562000a5d5762000a5c62000857565b5b62000a6b86828701620009b2565b935050602084015167ffffffffffffffff81111562000a8f5762000a8e62000857565b5b62000a9d86828701620009b2565b925050604062000ab08682870162000a09565b9150509250925092565b7f4e487b7100000000000000000000000000000000000000000000000000000000600052602260045260246000fd5b6000600282049050600182168062000b0257607f821691505b6020821081141562000b195762000b1862000aba565b5b50919050565b6131e38062000b2f6000396000f3fe60806040526004361061011f5760003560e01c806370a08231116100a0578063b88d4fde11610064578063b88d4fde14610405578063c87b56dd1461042e578063d5abeb011461046b578063d9cf6a2614610496578063e985e9c5146104c15761011f565b806370a082311461031b57806395d89b41146103585780639dfd8b0214610383578063a0712d68146103c0578063a22cb465146103dc5761011f565b806318160ddd116100e757806318160ddd1461021d57806323b872dd1461024857806342842e0e146102715780634c96a0621461029a5780636352211e146102de5761011f565b806301ffc9a71461012457806306fdde0314610161578063081812fc1461018c578063095ea7b3146101c957806313faede6146101f2575b600080fd5b34801561013057600080fd5b5061014b60048036038101906101469190612072565b6104fe565b60405161015891906120ba565b60405180910390f35b34801561016d57600080fd5b506101766105e0565b604051610183919061216e565b60405180910390f35b34801561019857600080fd5b506101b360048036038101906101ae91906121c6565b610672565b6040516101c09190612234565b60405180910390f35b3480156101d557600080fd5b506101f060048036038101906101eb919061227b565b6106b8565b005b3480156101fe57600080fd5b506102076107d0565b60405161021491906122ca565b60405180910390f35b34801561022957600080fd5b506102326107d6565b60405161023f91906122ca565b60405180910390f35b34801561025457600080fd5b5061026f600480360381019061026a91906122e5565b6107dc565b005b34801561027d57600080fd5b50610298600480360381019061029391906122e5565b6108ac565b005b3480156102a657600080fd5b506102c160048036038101906102bc91906121c6565b6108cc565b6040516102d5989796959493929190612351565b60405180910390f35b3480156102ea57600080fd5b50610305600480360381019061030091906121c6565b6109cc565b6040516103129190612234565b60405180910390f35b34801561032757600080fd5b50610342600480360381019061033d91906123d6565b610a53565b60405161034f91906122ca565b60405180910390f35b34801561036457600080fd5b5061036d610b0b565b60405161037a919061216e565b60405180910390f35b34801561038f57600080fd5b506103aa60048036038101906103a591906121c6565b610b9d565b6040516103b7919061252a565b60405180910390f35b6103da60048036038101906103d591906121c6565b610d0a565b005b3480156103e857600080fd5b5061040360048036038101906103fe9190612578565b610e52565b005b34801561041157600080fd5b5061042c600480360381019061042791906126ed565b610e68565b005b34801561043a57600080fd5b50610455600480360381019061045091906121c6565b610f3a565b604051610462919061216e565b60405180910390f35b34801561047757600080fd5b50610480610fa2565b60405161048d91906122ca565b60405180910390f35b3480156104a257600080fd5b506104ab610fa8565b6040516104b891906128e2565b60405180910390f35b3480156104cd57600080fd5b506104e860048036038101906104e39190612904565b61112c565b6040516104f591906120ba565b60405180910390f35b60007f80ac58cd000000000000000000000000000000000000000000000000000000007bffffffffffffffffffffffffffffffffffffffffffffffffffffffff1916827bffffffffffffffffffffffffffffffffffffffffffffffffffffffff191614806105c957507f5b5e139f000000000000000000000000000000000000000000000000000000007bffffffffffffffffffffffffffffffffffffffffffffffffffffffff1916827bffffffffffffffffffffffffffffffffffffffffffffffffffffffff1916145b806105d957506105d8826111c0565b5b9050919050565b6060600080546105ef90612973565b80601f016020809104026020016040519081016040528092919081815260200182805461061b90612973565b80156106685780601f1061063d57610100808354040283529160200191610668565b820191906000526020600020905b81548152906001019060200180831161064b57829003601f168201915b5050505050905090565b600061067d8261122a565b6004600083815260200190815260200160002060009054906101000a900473ffffffffffffffffffffffffffffffffffffffff169050919050565b60006106c3826109cc565b90508073ffffffffffffffffffffffffffffffffffffffff168373ffffffffffffffffffffffffffffffffffffffff161415610734576040517f08c379a000000000000000000000000000000000000000000000000000000000815260040161072b90612a17565b60405180910390fd5b8073ffffffffffffffffffffffffffffffffffffffff16610753611275565b73ffffffffffffffffffffffffffffffffffffffff16148061078257506107818161077c611275565b61112c565b5b6107c1576040517f08c379a00000000000000000000000000000000000000000000000000000000081526004016107b890612aa9565b60405180910390fd5b6107cb838361127d565b505050565b60065481565b60085481565b6107ed6107e7611275565b82611336565b61082c576040517f08c379a000000000000000000000000000000000000000000000000000000000815260040161082390612b3b565b60405180910390fd5b81600960018361083c9190612b8a565b8154811061084d5761084c612bbe565b5b906000526020600020906008020160010160006101000a81548173ffffffffffffffffffffffffffffffffffffffff021916908373ffffffffffffffffffffffffffffffffffffffff1602179055506108a78383836113cb565b505050565b6108c783838360405180602001604052806000815250610e68565b505050565b600981815481106108dc57600080fd5b90600052602060002090600802016000915090508060000180546108ff90612973565b80601f016020809104026020016040519081016040528092919081815260200182805461092b90612973565b80156109785780601f1061094d57610100808354040283529160200191610978565b820191906000526020600020905b81548152906001019060200180831161095b57829003601f168201915b5050505050908060010160009054906101000a900473ffffffffffffffffffffffffffffffffffffffff16908060020154908060030154908060040154908060050154908060060154908060070154905088565b6000806109d8836116c5565b9050600073ffffffffffffffffffffffffffffffffffffffff168173ffffffffffffffffffffffffffffffffffffffff161415610a4a576040517f08c379a0000000000000000000000000000000000000000000000000000000008152600401610a4190612c39565b60405180910390fd5b80915050919050565b60008073ffffffffffffffffffffffffffffffffffffffff168273ffffffffffffffffffffffffffffffffffffffff161415610ac4576040517f08c379a0000000000000000000000000000000000000000000000000000000008152600401610abb90612ccb565b60405180910390fd5b600360008373ffffffffffffffffffffffffffffffffffffffff1673ffffffffffffffffffffffffffffffffffffffff168152602001908152602001600020549050919050565b606060018054610b1a90612973565b80601f0160208091040260200160405190810160405280929190818152602001828054610b4690612973565b8015610b935780601f10610b6857610100808354040283529160200191610b93565b820191906000526020600020905b815481529060010190602001808311610b7657829003601f168201915b5050505050905090565b610ba5611fab565b6009600183610bb49190612b8a565b81548110610bc557610bc4612bbe565b5b906000526020600020906008020160405180610100016040529081600082018054610bef90612973565b80601f0160208091040260200160405190810160405280929190818152602001828054610c1b90612973565b8015610c685780601f10610c3d57610100808354040283529160200191610c68565b820191906000526020600020905b815481529060010190602001808311610c4b57829003601f168201915b505050505081526020016001820160009054906101000a900473ffffffffffffffffffffffffffffffffffffffff1673ffffffffffffffffffffffffffffffffffffffff1673ffffffffffffffffffffffffffffffffffffffff16815260200160028201548152602001600382015481526020016004820154815260200160058201548152602001600682015481526020016007820154815250509050919050565b60006008549050600754811115610d2057600080fd5b600073ffffffffffffffffffffffffffffffffffffffff166009600184610d479190612b8a565b81548110610d5857610d57612bbe565b5b906000526020600020906008020160010160009054906101000a900473ffffffffffffffffffffffffffffffffffffffff1673ffffffffffffffffffffffffffffffffffffffff1614610daa57600080fd5b670de0b6b3a7640000341015610dbf57600080fd5b336009600184610dcf9190612b8a565b81548110610de057610ddf612bbe565b5b906000526020600020906008020160010160006101000a81548173ffffffffffffffffffffffffffffffffffffffff021916908373ffffffffffffffffffffffffffffffffffffffff1602179055506001600854610e3e9190612ceb565b600881905550610e4e3383611702565b5050565b610e64610e5d611275565b8383611720565b5050565b610e79610e73611275565b83611336565b610eb8576040517f08c379a0000000000000000000000000000000000000000000000000000000008152600401610eaf90612b3b565b60405180910390fd5b826009600184610ec89190612b8a565b81548110610ed957610ed8612bbe565b5b906000526020600020906008020160010160006101000a81548173ffffffffffffffffffffffffffffffffffffffff021916908373ffffffffffffffffffffffffffffffffffffffff160217905550610f348484848461188d565b50505050565b6060610f458261122a565b6000610f4f6118e9565b90506000815111610f6f5760405180602001604052806000815250610f9a565b80610f7984611900565b604051602001610f8a929190612d7d565b6040516020818303038152906040525b915050919050565b60075481565b60606009805480602002602001604051908101604052809291908181526020016000905b8282101561112357838290600052602060002090600802016040518061010001604052908160008201805461100090612973565b80601f016020809104026020016040519081016040528092919081815260200182805461102c90612973565b80156110795780601f1061104e57610100808354040283529160200191611079565b820191906000526020600020905b81548152906001019060200180831161105c57829003601f168201915b505050505081526020016001820160009054906101000a900473ffffffffffffffffffffffffffffffffffffffff1673ffffffffffffffffffffffffffffffffffffffff1673ffffffffffffffffffffffffffffffffffffffff168152602001600282015481526020016003820154815260200160048201548152602001600582015481526020016006820154815260200160078201548152505081526020019060010190610fcc565b50505050905090565b6000600560008473ffffffffffffffffffffffffffffffffffffffff1673ffffffffffffffffffffffffffffffffffffffff16815260200190815260200160002060008373ffffffffffffffffffffffffffffffffffffffff1673ffffffffffffffffffffffffffffffffffffffff16815260200190815260200160002060009054906101000a900460ff16905092915050565b60007f01ffc9a7000000000000000000000000000000000000000000000000000000007bffffffffffffffffffffffffffffffffffffffffffffffffffffffff1916827bffffffffffffffffffffffffffffffffffffffffffffffffffffffff1916149050919050565b611233816119d8565b611272576040517f08c379a000000000000000000000000000000000000000000000000000000000815260040161126990612c39565b60405180910390fd5b50565b600033905090565b816004600083815260200190815260200160002060006101000a81548173ffffffffffffffffffffffffffffffffffffffff021916908373ffffffffffffffffffffffffffffffffffffffff160217905550808273ffffffffffffffffffffffffffffffffffffffff166112f0836109cc565b73ffffffffffffffffffffffffffffffffffffffff167f8c5be1e5ebec7d5bd14f71427d1e84f3dd0314c0f7b2291e5b200ac8c7c3b92560405160405180910390a45050565b600080611342836109cc565b90508073ffffffffffffffffffffffffffffffffffffffff168473ffffffffffffffffffffffffffffffffffffffff1614806113845750611383818561112c565b5b806113c257508373ffffffffffffffffffffffffffffffffffffffff166113aa84610672565b73ffffffffffffffffffffffffffffffffffffffff16145b91505092915050565b8273ffffffffffffffffffffffffffffffffffffffff166113eb826109cc565b73ffffffffffffffffffffffffffffffffffffffff1614611441576040517f08c379a000000000000000000000000000000000000000000000000000000000815260040161143890612e13565b60405180910390fd5b600073ffffffffffffffffffffffffffffffffffffffff168273ffffffffffffffffffffffffffffffffffffffff1614156114b1576040517f08c379a00000000000000000000000000000000000000000000000000000000081526004016114a890612ea5565b60405180910390fd5b6114be8383836001611a19565b8273ffffffffffffffffffffffffffffffffffffffff166114de826109cc565b73ffffffffffffffffffffffffffffffffffffffff1614611534576040517f08c379a000000000000000000000000000000000000000000000000000000000815260040161152b90612e13565b60405180910390fd5b6004600082815260200190815260200160002060006101000a81549073ffffffffffffffffffffffffffffffffffffffff02191690556001600360008573ffffffffffffffffffffffffffffffffffffffff1673ffffffffffffffffffffffffffffffffffffffff168152602001908152602001600020600082825403925050819055506001600360008473ffffffffffffffffffffffffffffffffffffffff1673ffffffffffffffffffffffffffffffffffffffff16815260200190815260200160002060008282540192505081905550816002600083815260200190815260200160002060006101000a81548173ffffffffffffffffffffffffffffffffffffffff021916908373ffffffffffffffffffffffffffffffffffffffff160217905550808273ffffffffffffffffffffffffffffffffffffffff168473ffffffffffffffffffffffffffffffffffffffff167fddf252ad1be2c89b69c2b068fc378daa952ba7f163c4a11628f55a4df523b3ef60405160405180910390a46116c08383836001611a1f565b505050565b60006002600083815260200190815260200160002060009054906101000a900473ffffffffffffffffffffffffffffffffffffffff169050919050565b61171c828260405180602001604052806000815250611a25565b5050565b8173ffffffffffffffffffffffffffffffffffffffff168373ffffffffffffffffffffffffffffffffffffffff16141561178f576040517f08c379a000000000000000000000000000000000000000000000000000000000815260040161178690612f11565b60405180910390fd5b80600560008573ffffffffffffffffffffffffffffffffffffffff1673ffffffffffffffffffffffffffffffffffffffff16815260200190815260200160002060008473ffffffffffffffffffffffffffffffffffffffff1673ffffffffffffffffffffffffffffffffffffffff16815260200190815260200160002060006101000a81548160ff0219169083151502179055508173ffffffffffffffffffffffffffffffffffffffff168373ffffffffffffffffffffffffffffffffffffffff167f17307eab39ab6107e8899845ad3d59bd9653f200f220920489ca2b5937696c318360405161188091906120ba565b60405180910390a3505050565b6118988484846113cb565b6118a484848484611a80565b6118e3576040517f08c379a00000000000000000000000000000000000000000000000000000000081526004016118da90612fa3565b60405180910390fd5b50505050565b606060405180602001604052806000815250905090565b60606000600161190f84611c17565b01905060008167ffffffffffffffff81111561192e5761192d6125c2565b5b6040519080825280601f01601f1916602001820160405280156119605781602001600182028036833780820191505090505b509050600082602001820190505b6001156119cd578080600190039150507f3031323334353637383961626364656600000000000000000000000000000000600a86061a8153600a85816119b7576119b6612fc3565b5b04945060008514156119c8576119cd565b61196e565b819350505050919050565b60008073ffffffffffffffffffffffffffffffffffffffff166119fa836116c5565b73ffffffffffffffffffffffffffffffffffffffff1614159050919050565b50505050565b50505050565b611a2f8383611d6a565b611a3c6000848484611a80565b611a7b576040517f08c379a0000000000000000000000000000000000000000000000000000000008152600401611a7290612fa3565b60405180910390fd5b505050565b6000611aa18473ffffffffffffffffffffffffffffffffffffffff16611f88565b15611c0a578373ffffffffffffffffffffffffffffffffffffffff1663150b7a02611aca611275565b8786866040518563ffffffff1660e01b8152600401611aec9493929190613047565b602060405180830381600087803b158015611b0657600080fd5b505af1925050508015611b3757506040513d601f19601f82011682018060405250810190611b3491906130a8565b60015b611bba573d8060008114611b67576040519150601f19603f3d011682016040523d82523d6000602084013e611b6c565b606091505b50600081511415611bb2576040517f08c379a0000000000000000000000000000000000000000000000000000000008152600401611ba990612fa3565b60405180910390fd5b805181602001fd5b63150b7a0260e01b7bffffffffffffffffffffffffffffffffffffffffffffffffffffffff1916817bffffffffffffffffffffffffffffffffffffffffffffffffffffffff191614915050611c0f565b600190505b949350505050565b600080600090507a184f03e93ff9f4daa797ed6e38ed64bf6a1f0100000000000000008310611c75577a184f03e93ff9f4daa797ed6e38ed64bf6a1f0100000000000000008381611c6b57611c6a612fc3565b5b0492506040810190505b6d04ee2d6d415b85acef81000000008310611cb2576d04ee2d6d415b85acef81000000008381611ca857611ca7612fc3565b5b0492506020810190505b662386f26fc100008310611ce157662386f26fc100008381611cd757611cd6612fc3565b5b0492506010810190505b6305f5e1008310611d0a576305f5e1008381611d0057611cff612fc3565b5b0492506008810190505b6127108310611d2f576127108381611d2557611d24612fc3565b5b0492506004810190505b60648310611d525760648381611d4857611d47612fc3565b5b0492506002810190505b600a8310611d61576001810190505b80915050919050565b600073ffffffffffffffffffffffffffffffffffffffff168273ffffffffffffffffffffffffffffffffffffffff161415611dda576040517f08c379a0000000000000000000000000000000000000000000000000000000008152600401611dd190613121565b60405180910390fd5b611de3816119d8565b15611e23576040517f08c379a0000000000000000000000000000000000000000000000000000000008152600401611e1a9061318d565b60405180910390fd5b611e31600083836001611a19565b611e3a816119d8565b15611e7a576040517f08c379a0000000000000000000000000000000000000000000000000000000008152600401611e719061318d565b60405180910390fd5b6001600360008473ffffffffffffffffffffffffffffffffffffffff1673ffffffffffffffffffffffffffffffffffffffff16815260200190815260200160002060008282540192505081905550816002600083815260200190815260200160002060006101000a81548173ffffffffffffffffffffffffffffffffffffffff021916908373ffffffffffffffffffffffffffffffffffffffff160217905550808273ffffffffffffffffffffffffffffffffffffffff16600073ffffffffffffffffffffffffffffffffffffffff167fddf252ad1be2c89b69c2b068fc378daa952ba7f163c4a11628f55a4df523b3ef60405160405180910390a4611f84600083836001611a1f565b5050565b6000808273ffffffffffffffffffffffffffffffffffffffff163b119050919050565b60405180610100016040528060608152602001600073ffffffffffffffffffffffffffffffffffffffff1681526020016000815260200160008152602001600081526020016000815260200160008152602001600081525090565b6000604051905090565b600080fd5b600080fd5b60007fffffffff0000000000000000000000000000000000000000000000000000000082169050919050565b61204f8161201a565b811461205a57600080fd5b50565b60008135905061206c81612046565b92915050565b60006020828403121561208857612087612010565b5b60006120968482850161205d565b91505092915050565b60008115159050919050565b6120b48161209f565b82525050565b60006020820190506120cf60008301846120ab565b92915050565b600081519050919050565b600082825260208201905092915050565b60005b8381101561210f5780820151818401526020810190506120f4565b8381111561211e576000848401525b50505050565b6000601f19601f8301169050919050565b6000612140826120d5565b61214a81856120e0565b935061215a8185602086016120f1565b61216381612124565b840191505092915050565b600060208201905081810360008301526121888184612135565b905092915050565b6000819050919050565b6121a381612190565b81146121ae57600080fd5b50565b6000813590506121c08161219a565b92915050565b6000602082840312156121dc576121db612010565b5b60006121ea848285016121b1565b91505092915050565b600073ffffffffffffffffffffffffffffffffffffffff82169050919050565b600061221e826121f3565b9050919050565b61222e81612213565b82525050565b60006020820190506122496000830184612225565b92915050565b61225881612213565b811461226357600080fd5b50565b6000813590506122758161224f565b92915050565b6000806040838503121561229257612291612010565b5b60006122a085828601612266565b92505060206122b1858286016121b1565b9150509250929050565b6122c481612190565b82525050565b60006020820190506122df60008301846122bb565b92915050565b6000806000606084860312156122fe576122fd612010565b5b600061230c86828701612266565b935050602061231d86828701612266565b925050604061232e868287016121b1565b9150509250925092565b6000819050919050565b61234b81612338565b82525050565b600061010082019050818103600083015261236c818b612135565b905061237b602083018a612225565b6123886040830189612342565b6123956060830188612342565b6123a26080830187612342565b6123af60a08301866122bb565b6123bc60c08301856122bb565b6123c960e08301846122bb565b9998505050505050505050565b6000602082840312156123ec576123eb612010565b5b60006123fa84828501612266565b91505092915050565b600082825260208201905092915050565b600061241f826120d5565b6124298185612403565b93506124398185602086016120f1565b61244281612124565b840191505092915050565b61245681612213565b82525050565b61246581612338565b82525050565b61247481612190565b82525050565b60006101008301600083015184820360008601526124988282612414565b91505060208301516124ad602086018261244d565b5060408301516124c0604086018261245c565b5060608301516124d3606086018261245c565b5060808301516124e6608086018261245c565b5060a08301516124f960a086018261246b565b5060c083015161250c60c086018261246b565b5060e083015161251f60e086018261246b565b508091505092915050565b60006020820190508181036000830152612544818461247a565b905092915050565b6125558161209f565b811461256057600080fd5b50565b6000813590506125728161254c565b92915050565b6000806040838503121561258f5761258e612010565b5b600061259d85828601612266565b92505060206125ae85828601612563565b9150509250929050565b600080fd5b600080fd5b7f4e487b7100000000000000000000000000000000000000000000000000000000600052604160045260246000fd5b6125fa82612124565b810181811067ffffffffffffffff82111715612619576126186125c2565b5b80604052505050565b600061262c612006565b905061263882826125f1565b919050565b600067ffffffffffffffff821115612658576126576125c2565b5b61266182612124565b9050602081019050919050565b82818337600083830152505050565b600061269061268b8461263d565b612622565b9050828152602081018484840111156126ac576126ab6125bd565b5b6126b784828561266e565b509392505050565b600082601f8301126126d4576126d36125b8565b5b81356126e484826020860161267d565b91505092915050565b6000806000806080858703121561270757612706612010565b5b600061271587828801612266565b945050602061272687828801612266565b9350506040612737878288016121b1565b925050606085013567ffffffffffffffff81111561275857612757612015565b5b612764878288016126bf565b91505092959194509250565b600081519050919050565b600082825260208201905092915050565b6000819050602082019050919050565b60006101008301600083015184820360008601526127ba8282612414565b91505060208301516127cf602086018261244d565b5060408301516127e2604086018261245c565b5060608301516127f5606086018261245c565b506080830151612808608086018261245c565b5060a083015161281b60a086018261246b565b5060c083015161282e60c086018261246b565b5060e083015161284160e086018261246b565b508091505092915050565b6000612858838361279c565b905092915050565b6000602082019050919050565b600061287882612770565b612882818561277b565b9350836020820285016128948561278c565b8060005b858110156128d057848403895281516128b1858261284c565b94506128bc83612860565b925060208a01995050600181019050612898565b50829750879550505050505092915050565b600060208201905081810360008301526128fc818461286d565b905092915050565b6000806040838503121561291b5761291a612010565b5b600061292985828601612266565b925050602061293a85828601612266565b9150509250929050565b7f4e487b7100000000000000000000000000000000000000000000000000000000600052602260045260246000fd5b6000600282049050600182168061298b57607f821691505b6020821081141561299f5761299e612944565b5b50919050565b7f4552433732313a20617070726f76616c20746f2063757272656e74206f776e6560008201527f7200000000000000000000000000000000000000000000000000000000000000602082015250565b6000612a016021836120e0565b9150612a0c826129a5565b604082019050919050565b60006020820190508181036000830152612a30816129f4565b9050919050565b7f4552433732313a20617070726f76652063616c6c6572206973206e6f7420746f60008201527f6b656e206f776e6572206f7220617070726f76656420666f7220616c6c000000602082015250565b6000612a93603d836120e0565b9150612a9e82612a37565b604082019050919050565b60006020820190508181036000830152612ac281612a86565b9050919050565b7f4552433732313a207472616e736665722063616c6c6572206973206e6f74206f60008201527f776e6572206e6f7220617070726f766564000000000000000000000000000000602082015250565b6000612b256031836120e0565b9150612b3082612ac9565b604082019050919050565b60006020820190508181036000830152612b5481612b18565b9050919050565b7f4e487b7100000000000000000000000000000000000000000000000000000000600052601160045260246000fd5b6000612b9582612190565b9150612ba083612190565b925082821015612bb357612bb2612b5b565b5b828203905092915050565b7f4e487b7100000000000000000000000000000000000000000000000000000000600052603260045260246000fd5b7f4552433732313a20696e76616c696420746f6b656e2049440000000000000000600082015250565b6000612c236018836120e0565b9150612c2e82612bed565b602082019050919050565b60006020820190508181036000830152612c5281612c16565b9050919050565b7f4552433732313a2061646472657373207a65726f206973206e6f74206120766160008201527f6c6964206f776e65720000000000000000000000000000000000000000000000602082015250565b6000612cb56029836120e0565b9150612cc082612c59565b604082019050919050565b60006020820190508181036000830152612ce481612ca8565b9050919050565b6000612cf682612190565b9150612d0183612190565b9250827fffffffffffffffffffffffffffffffffffffffffffffffffffffffffffffffff03821115612d3657612d35612b5b565b5b828201905092915050565b600081905092915050565b6000612d57826120d5565b612d618185612d41565b9350612d718185602086016120f1565b80840191505092915050565b6000612d898285612d4c565b9150612d958284612d4c565b91508190509392505050565b7f4552433732313a207472616e736665722066726f6d20696e636f72726563742060008201527f6f776e6572000000000000000000000000000000000000000000000000000000602082015250565b6000612dfd6025836120e0565b9150612e0882612da1565b604082019050919050565b60006020820190508181036000830152612e2c81612df0565b9050919050565b7f4552433732313a207472616e7366657220746f20746865207a65726f2061646460008201527f7265737300000000000000000000000000000000000000000000000000000000602082015250565b6000612e8f6024836120e0565b9150612e9a82612e33565b604082019050919050565b60006020820190508181036000830152612ebe81612e82565b9050919050565b7f4552433732313a20617070726f766520746f2063616c6c657200000000000000600082015250565b6000612efb6019836120e0565b9150612f0682612ec5565b602082019050919050565b60006020820190508181036000830152612f2a81612eee565b9050919050565b7f4552433732313a207472616e7366657220746f206e6f6e20455243373231526560008201527f63656976657220696d706c656d656e7465720000000000000000000000000000602082015250565b6000612f8d6032836120e0565b9150612f9882612f31565b604082019050919050565b60006020820190508181036000830152612fbc81612f80565b9050919050565b7f4e487b7100000000000000000000000000000000000000000000000000000000600052601260045260246000fd5b600081519050919050565b600082825260208201905092915050565b600061301982612ff2565b6130238185612ffd565b93506130338185602086016120f1565b61303c81612124565b840191505092915050565b600060808201905061305c6000830187612225565b6130696020830186612225565b61307660408301856122bb565b8181036060830152613088818461300e565b905095945050505050565b6000815190506130a281612046565b92915050565b6000602082840312156130be576130bd612010565b5b60006130cc84828501613093565b91505092915050565b7f4552433732313a206d696e7420746f20746865207a65726f2061646472657373600082015250565b600061310b6020836120e0565b9150613116826130d5565b602082019050919050565b6000602082019050818103600083015261313a816130fe565b9050919050565b7f4552433732313a20746f6b656e20616c7265616479206d696e74656400000000600082015250565b6000613177601c836120e0565b915061318282613141565b602082019050919050565b600060208201905081810360008301526131a68161316a565b905091905056fea2646970667358221220b399667a6bd5d4bc79102029fc671a4e950bd8958bdd45bf31df0fd0f591d10e64736f6c63430008090033",
  "immutableReferences": {},
  "source": "// SPDX-License-Identifier: MIT\r\npragma solidity ^0.8.0;\r\n\r\nimport \"@openzeppelin/contracts/token/ERC721/ERC721.sol\";\r\n\r\ncontract Land is ERC721 {\r\n    uint256 public cost = 1 ether;\r\n    uint256 public maxSupply = 5;\r\n    uint256 public totalSupply = 0;\r\n\r\n    struct Building {\r\n        string name;\r\n        address owner;\r\n        int256 posX;\r\n        int256 posY;\r\n        int256 posZ;\r\n        uint256 sizeX;\r\n        uint256 sizeY;\r\n        uint256 sizeZ;\r\n    }\r\n\r\n    Building[] public buildings;\r\n\r\n    constructor(\r\n        string memory _name,\r\n        string memory _symbol,\r\n        uint256 _cost\r\n    ) ERC721(_name, _symbol) {\r\n        cost = _cost;\r\n\r\n        buildings.push(Building(\"Maison 1\", address(0x0), -24, 0, 0, 10, 10, 10));\r\n        buildings.push(Building(\"Maison 2\", address(0x0), -12, 0, 0, 10, 10, 10));\r\n        buildings.push(Building(\"Maison 3\", address(0x0), 0, 0, 0, 10, 10, 10));\r\n        buildings.push(Building(\"Maison 4\", address(0x0), 12, 0, 0, 10, 10, 10));\r\n        buildings.push(Building(\"Maison 5\", address(0x0), 24, 0, 0, 10, 10, 10));\r\n    }\r\n\r\n    function mint(uint256 _id) public payable {\r\n        uint256 supply = totalSupply;\r\n        require(supply <= maxSupply);\r\n        require(buildings[_id - 1].owner == address(0x0));\r\n        //require(msg.value >= cost);\r\n        require(msg.value >= 1 ether);\r\n\r\n        // NOTE: tokenID always starts from 1, but our array starts from 0\r\n        buildings[_id - 1].owner = msg.sender;\r\n        totalSupply = totalSupply + 1;\r\n\r\n        _safeMint(msg.sender, _id);\r\n    }\r\n\r\n    function transferFrom(\r\n        address from,\r\n        address to,\r\n        uint256 tokenId\r\n    ) public override {\r\n        require(\r\n            _isApprovedOrOwner(_msgSender(), tokenId),\r\n            \"ERC721: transfer caller is not owner nor approved\"\r\n        );\r\n\r\n        // Update Building ownership\r\n        buildings[tokenId - 1].owner = to;\r\n\r\n        _transfer(from, to, tokenId);\r\n    }\r\n\r\n    function safeTransferFrom(\r\n        address from,\r\n        address to,\r\n        uint256 tokenId,\r\n        bytes memory _data\r\n    ) public override {\r\n        require(\r\n            _isApprovedOrOwner(_msgSender(), tokenId),\r\n            \"ERC721: transfer caller is not owner nor approved\"\r\n        );\r\n\r\n        // Update Building ownership\r\n        buildings[tokenId - 1].owner = to;\r\n\r\n        _safeTransfer(from, to, tokenId, _data);\r\n    }\r\n\r\n    // Public View Functions\r\n    function getBuildings() public view returns (Building[] memory) {\r\n        return buildings;\r\n    }\r\n\r\n    function getBuilding(uint256 _id) public view returns (Building memory) {\r\n        return buildings[_id - 1];\r\n    }\r\n}\r\n",
  "sourcePath": "C:\\Users\\MATHI\\OneDrive\\Documents\\Epsi\\Metaverse\\maison\\src\\contracts\\Land.sol",
  "compiler": {
    "name": "solc",
    "version": "0.8.9+commit.e5eed63a.Emscripten.clang"
  },
  "schemaVersion": "3.4.14",
  "updatedAt": "2023-05-31T17:17:02.751Z",
  "devdoc": {
    "kind": "dev",
    "methods": {
      "approve(address,uint256)": {
        "details": "See {IERC721-approve}."
      },
      "balanceOf(address)": {
        "details": "See {IERC721-balanceOf}."
      },
      "getApproved(uint256)": {
        "details": "See {IERC721-getApproved}."
      },
      "isApprovedForAll(address,address)": {
        "details": "See {IERC721-isApprovedForAll}."
      },
      "name()": {
        "details": "See {IERC721Metadata-name}."
      },
      "ownerOf(uint256)": {
        "details": "See {IERC721-ownerOf}."
      },
      "safeTransferFrom(address,address,uint256)": {
        "details": "See {IERC721-safeTransferFrom}."
      },
      "setApprovalForAll(address,bool)": {
        "details": "See {IERC721-setApprovalForAll}."
      },
      "supportsInterface(bytes4)": {
        "details": "See {IERC165-supportsInterface}."
      },
      "symbol()": {
        "details": "See {IERC721Metadata-symbol}."
      },
      "tokenURI(uint256)": {
        "details": "See {IERC721Metadata-tokenURI}."
      },
      "transferFrom(address,address,uint256)": {
        "details": "See {IERC721-transferFrom}."
      }
    },
    "version": 1
  },
  "userdoc": {
    "kind": "user",
    "methods": {},
    "version": 1
  }
}