{
  "contractName": "HouseNFT",
  "abi": [
    {
      "inputs": [
        {
          "internalType": "uint256",
          "name": "_cost",
          "type": "uint256"
        },
        {
          "internalType": "uint256",
          "name": "_maxSupply",
          "type": "uint256"
        },
        {
          "internalType": "uint256",
          "name": "_totalSupply",
          "type": "uint256"
        }
      ],
      "stateMutability": "nonpayable",
      "type": "constructor"
    },
    {
      "inputs": [],
      "name": "cost",
      "outputs": [
        {
          "internalType": "uint256",
          "name": "",
          "type": "uint256"
        }
      ],
      "stateMutability": "view",
      "type": "function"
    },
    {
      "inputs": [
        {
          "internalType": "uint256",
          "name": "",
          "type": "uint256"
        }
      ],
      "name": "houses",
      "outputs": [
        {
          "internalType": "address",
          "name": "owner",
          "type": "address"
        }
      ],
      "stateMutability": "view",
      "type": "function"
    },
    {
      "inputs": [],
      "name": "maxSupply",
      "outputs": [
        {
          "internalType": "uint256",
          "name": "",
          "type": "uint256"
        }
      ],
      "stateMutability": "view",
      "type": "function"
    },
    {
      "inputs": [],
      "name": "totalSupply",
      "outputs": [
        {
          "internalType": "uint256",
          "name": "",
          "type": "uint256"
        }
      ],
      "stateMutability": "view",
      "type": "function"
    },
    {
      "inputs": [],
      "name": "mint",
      "outputs": [],
      "stateMutability": "payable",
      "type": "function"
    }
  ],
  "bytecode": "0x608060405234801561001057600080fd5b5060405161085038038061085083398181016040528101906100329190610119565b82600081905550816001819055508060028190555060005b828110156100fb5760036040518060200160405280600073ffffffffffffffffffffffffffffffffffffffff168152509080600181540180825580915050600190039060005260206000200160009091909190915060008201518160000160006101000a81548173ffffffffffffffffffffffffffffffffffffffff021916908373ffffffffffffffffffffffffffffffffffffffff160217905550505080806100f390610172565b91505061004a565b50505050610201565b600081519050610113816101ea565b92915050565b60008060006060848603121561012e57600080fd5b600061013c86828701610104565b935050602061014d86828701610104565b925050604061015e86828701610104565b9150509250925092565b6000819050919050565b600061017d82610168565b91507fffffffffffffffffffffffffffffffffffffffffffffffffffffffffffffffff8214156101b0576101af6101bb565b5b600182019050919050565b7f4e487b7100000000000000000000000000000000000000000000000000000000600052601160045260246000fd5b6101f381610168565b81146101fe57600080fd5b50565b610640806102106000396000f3fe60806040526004361061004a5760003560e01c80631249c58b1461004f57806313faede61461005957806318160ddd14610084578063aeda852f146100af578063d5abeb01146100ec575b600080fd5b610057610117565b005b34801561006557600080fd5b5061006e610320565b60405161007b9190610513565b60405180910390f35b34801561009057600080fd5b50610099610326565b6040516100a69190610513565b60405180910390f35b3480156100bb57600080fd5b506100d660048036038101906100d19190610391565b61032c565b6040516100e39190610498565b60405180910390f35b3480156100f857600080fd5b50610101610376565b60405161010e9190610513565b60405180910390f35b60005434101561015c576040517f08c379a0000000000000000000000000000000000000000000000000000000008152600401610153906104b3565b60405180910390fd5b600154600254106101a2576040517f08c379a0000000000000000000000000000000000000000000000000000000008152600401610199906104d3565b60405180910390fd5b60006002549050600073ffffffffffffffffffffffffffffffffffffffff16600382815481106101fb577f4e487b7100000000000000000000000000000000000000000000000000000000600052603260045260246000fd5b9060005260206000200160000160009054906101000a900473ffffffffffffffffffffffffffffffffffffffff1673ffffffffffffffffffffffffffffffffffffffff161461027f576040517f08c379a0000000000000000000000000000000000000000000000000000000008152600401610276906104f3565b60405180910390fd5b33600382815481106102ba577f4e487b7100000000000000000000000000000000000000000000000000000000600052603260045260246000fd5b9060005260206000200160000160006101000a81548173ffffffffffffffffffffffffffffffffffffffff021916908373ffffffffffffffffffffffffffffffffffffffff160217905550600260008154809291906103189061057b565b919050555050565b60005481565b60025481565b6003818154811061033c57600080fd5b906000526020600020016000915090508060000160009054906101000a900473ffffffffffffffffffffffffffffffffffffffff16905081565b60015481565b60008135905061038b816105f3565b92915050565b6000602082840312156103a357600080fd5b60006103b18482850161037c565b91505092915050565b6103c38161053f565b82525050565b60006103d660108361052e565b91507f496e73756666696369656e7420455448000000000000000000000000000000006000830152602082019050919050565b600061041660128361052e565b91507f4d617820737570706c79207265616368656400000000000000000000000000006000830152602082019050919050565b600061045660138361052e565b91507f486f75736520616c7265616479206f776e6564000000000000000000000000006000830152602082019050919050565b61049281610571565b82525050565b60006020820190506104ad60008301846103ba565b92915050565b600060208201905081810360008301526104cc816103c9565b9050919050565b600060208201905081810360008301526104ec81610409565b9050919050565b6000602082019050818103600083015261050c81610449565b9050919050565b60006020820190506105286000830184610489565b92915050565b600082825260208201905092915050565b600061054a82610551565b9050919050565b600073ffffffffffffffffffffffffffffffffffffffff82169050919050565b6000819050919050565b600061058682610571565b91507fffffffffffffffffffffffffffffffffffffffffffffffffffffffffffffffff8214156105b9576105b86105c4565b5b600182019050919050565b7f4e487b7100000000000000000000000000000000000000000000000000000000600052601160045260246000fd5b6105fc81610571565b811461060757600080fd5b5056fea26469706673582212209154756f87e4c830540b86a4fa32ecbd9c6902dcc61f009dccc4c374fbaa55c464736f6c63430008000033",
  "immutableReferences": {},
  "source": "// SPDX-License-Identifier: MIT\r\npragma solidity ^0.8.0;\r\n\r\ncontract HouseNFT {\r\n    uint256 public cost; // Cot d'une maison\r\n    uint256 public maxSupply; // Quantit totale de maisons disponibles\r\n    uint256 public totalSupply; // Dotation maximale de maisons qu'un utilisateur peut avoir\r\n\r\n    struct House {\r\n        address owner; // Propritaire de la maison\r\n        // Autres variables lies  la maison\r\n    }\r\n\r\n    House[] public houses; // Tableau contenant toutes les maisons\r\n\r\n    constructor(uint256 _cost, uint256 _maxSupply, uint256 _totalSupply) {\r\n        cost = _cost;\r\n        maxSupply = _maxSupply;\r\n        totalSupply = _totalSupply;\r\n\r\n        // Ajouter les maisons initiales au dploiement du contrat\r\n        for (uint256 i = 0; i < _maxSupply; i++) {\r\n            houses.push(House(address(0)));\r\n        }\r\n    }\r\n\r\n    function mint() public payable {\r\n        require(msg.value >= cost, \"Insufficient ETH\"); // Vrifier si le montant d'ETH est suffisant\r\n        require(totalSupply < maxSupply, \"Max supply reached\"); // Vrifier si la dotation maximale est atteinte\r\n\r\n        uint256 tokenId = totalSupply; // Identifiant du NFT quivalent  la dotation actuelle\r\n        require(houses[tokenId].owner == address(0), \"House already owned\"); // Vrifier si la maison est dj possde\r\n\r\n        houses[tokenId].owner = msg.sender; // Attribuer la maison  l'acheteur\r\n        totalSupply++; // Augmenter la dotation actuelle\r\n\r\n        // ventuellement, mettre le NFT correspondant  la maison\r\n    }\r\n}",
  "sourcePath": "C:\\Users\\MATHI\\OneDrive\\Documents\\Epsi\\Metaverse\\maison\\src\\contracts\\HouseNFT.sol",
  "compiler": {
    "name": "solc",
    "version": "0.8.0+commit.c7dfd78e.Emscripten.clang"
  },
  "schemaVersion": "3.4.14",
  "updatedAt": "2023-05-26T11:33:49.205Z",
  "devdoc": {
    "kind": "dev",
    "methods": {},
    "version": 1
  },
  "userdoc": {
    "kind": "user",
    "methods": {},
    "version": 1
  }
}